{
  "_format": "hh3-artifact-1",
  "contractName": "LandTransferContract",
  "sourceName": "contracts/LandTransferContract.sol",
  "abi": [
    {
      "inputs": [
        {
          "internalType": "address",
          "name": "_landOwnershipNFT",
          "type": "address"
        },
        {
          "internalType": "uint256",
          "name": "_transferFeeBasisPoints",
          "type": "uint256"
        },
        {
          "internalType": "address payable",
          "name": "_feeRecipient",
          "type": "address"
        }
      ],
      "stateMutability": "nonpayable",
      "type": "constructor"
    },
    {
      "inputs": [],
      "name": "InsufficientEscrow",
      "type": "error"
    },
    {
      "inputs": [],
      "name": "InsufficientPayment",
      "type": "error"
    },
    {
      "inputs": [],
      "name": "InvalidLandNFTContract",
      "type": "error"
    },
    {
      "inputs": [],
      "name": "InvalidPrice",
      "type": "error"
    },
    {
      "inputs": [
        {
          "internalType": "address",
          "name": "owner",
          "type": "address"
        }
      ],
      "name": "OwnableInvalidOwner",
      "type": "error"
    },
    {
      "inputs": [
        {
          "internalType": "address",
          "name": "account",
          "type": "address"
        }
      ],
      "name": "OwnableUnauthorizedAccount",
      "type": "error"
    },
    {
      "inputs": [],
      "name": "PriceBelowMinimum",
      "type": "error"
    },
    {
      "inputs": [],
      "name": "ReentrancyGuardReentrantCall",
      "type": "error"
    },
    {
      "inputs": [],
      "name": "TransferAlreadyExists",
      "type": "error"
    },
    {
      "inputs": [],
      "name": "TransferExpired",
      "type": "error"
    },
    {
      "inputs": [],
      "name": "TransferFailed",
      "type": "error"
    },
    {
      "inputs": [],
      "name": "TransferNotFound",
      "type": "error"
    },
    {
      "inputs": [],
      "name": "TransferNotPending",
      "type": "error"
    },
    {
      "inputs": [],
      "name": "UnauthorizedCaller",
      "type": "error"
    },
    {
      "inputs": [],
      "name": "WithdrawalFailed",
      "type": "error"
    },
    {
      "anonymous": false,
      "inputs": [
        {
          "indexed": false,
          "internalType": "uint256",
          "name": "newFeeBasisPoints",
          "type": "uint256"
        },
        {
          "indexed": false,
          "internalType": "address",
          "name": "newFeeRecipient",
          "type": "address"
        }
      ],
      "name": "FeesUpdated",
      "type": "event"
    },
    {
      "anonymous": false,
      "inputs": [
        {
          "indexed": true,
          "internalType": "uint256",
          "name": "transferId",
          "type": "uint256"
        },
        {
          "indexed": true,
          "internalType": "address",
          "name": "buyer",
          "type": "address"
        },
        {
          "indexed": false,
          "internalType": "uint256",
          "name": "amount",
          "type": "uint256"
        }
      ],
      "name": "FundsEscrowed",
      "type": "event"
    },
    {
      "anonymous": false,
      "inputs": [
        {
          "indexed": true,
          "internalType": "address",
          "name": "oldContract",
          "type": "address"
        },
        {
          "indexed": true,
          "internalType": "address",
          "name": "newContract",
          "type": "address"
        }
      ],
      "name": "LandNFTContractUpdated",
      "type": "event"
    },
    {
      "anonymous": false,
      "inputs": [
        {
          "indexed": true,
          "internalType": "address",
          "name": "previousOwner",
          "type": "address"
        },
        {
          "indexed": true,
          "internalType": "address",
          "name": "newOwner",
          "type": "address"
        }
      ],
      "name": "OwnershipTransferred",
      "type": "event"
    },
    {
      "anonymous": false,
      "inputs": [
        {
          "indexed": true,
          "internalType": "uint256",
          "name": "transferId",
          "type": "uint256"
        },
        {
          "indexed": true,
          "internalType": "uint256",
          "name": "tokenId",
          "type": "uint256"
        },
        {
          "indexed": true,
          "internalType": "address",
          "name": "initiator",
          "type": "address"
        }
      ],
      "name": "TransferCancelled",
      "type": "event"
    },
    {
      "anonymous": false,
      "inputs": [
        {
          "indexed": true,
          "internalType": "uint256",
          "name": "transferId",
          "type": "uint256"
        },
        {
          "indexed": true,
          "internalType": "uint256",
          "name": "tokenId",
          "type": "uint256"
        },
        {
          "indexed": true,
          "internalType": "address",
          "name": "seller",
          "type": "address"
        },
        {
          "indexed": false,
          "internalType": "address",
          "name": "buyer",
          "type": "address"
        },
        {
          "indexed": false,
          "internalType": "uint256",
          "name": "price",
          "type": "uint256"
        },
        {
          "indexed": false,
          "internalType": "uint256",
          "name": "fee",
          "type": "uint256"
        }
      ],
      "name": "TransferCompleted",
      "type": "event"
    },
    {
      "anonymous": false,
      "inputs": [
        {
          "indexed": true,
          "internalType": "uint256",
          "name": "transferId",
          "type": "uint256"
        },
        {
          "indexed": true,
          "internalType": "uint256",
          "name": "tokenId",
          "type": "uint256"
        },
        {
          "indexed": true,
          "internalType": "address",
          "name": "seller",
          "type": "address"
        },
        {
          "indexed": false,
          "internalType": "address",
          "name": "buyer",
          "type": "address"
        },
        {
          "indexed": false,
          "internalType": "uint256",
          "name": "price",
          "type": "uint256"
        }
      ],
      "name": "TransferInitiated",
      "type": "event"
    },
    {
      "inputs": [
        {
          "internalType": "uint256",
          "name": "",
          "type": "uint256"
        }
      ],
      "name": "activeTransfers",
      "outputs": [
        {
          "internalType": "uint256",
          "name": "",
          "type": "uint256"
        }
      ],
      "stateMutability": "view",
      "type": "function"
    },
    {
      "inputs": [
        {
          "internalType": "uint256",
          "name": "price",
          "type": "uint256"
        }
      ],
      "name": "calculateFee",
      "outputs": [
        {
          "internalType": "uint256",
          "name": "",
          "type": "uint256"
        }
      ],
      "stateMutability": "view",
      "type": "function"
    },
    {
      "inputs": [
        {
          "internalType": "uint256",
          "name": "transferId",
          "type": "uint256"
        }
      ],
      "name": "cancelTransfer",
      "outputs": [],
      "stateMutability": "nonpayable",
      "type": "function"
    },
    {
      "inputs": [
        {
          "internalType": "uint256",
          "name": "transferId",
          "type": "uint256"
        }
      ],
      "name": "completeTransfer",
      "outputs": [],
      "stateMutability": "nonpayable",
      "type": "function"
    },
    {
      "inputs": [
        {
          "internalType": "uint256",
          "name": "transferId",
          "type": "uint256"
        }
      ],
      "name": "depositEscrow",
      "outputs": [],
      "stateMutability": "payable",
      "type": "function"
    },
    {
      "inputs": [],
      "name": "emergencyWithdraw",
      "outputs": [],
      "stateMutability": "nonpayable",
      "type": "function"
    },
    {
      "inputs": [
        {
          "internalType": "address",
          "name": "",
          "type": "address"
        }
      ],
      "name": "escrowedFunds",
      "outputs": [
        {
          "internalType": "uint256",
          "name": "",
          "type": "uint256"
        }
      ],
      "stateMutability": "view",
      "type": "function"
    },
    {
      "inputs": [],
      "name": "feeRecipient",
      "outputs": [
        {
          "internalType": "address payable",
          "name": "",
          "type": "address"
        }
      ],
      "stateMutability": "view",
      "type": "function"
    },
    {
      "inputs": [
        {
          "internalType": "address",
          "name": "account",
          "type": "address"
        }
      ],
      "name": "getEscrowedBalance",
      "outputs": [
        {
          "internalType": "uint256",
          "name": "",
          "type": "uint256"
        }
      ],
      "stateMutability": "view",
      "type": "function"
    },
    {
      "inputs": [
        {
          "internalType": "uint256",
          "name": "transferId",
          "type": "uint256"
        }
      ],
      "name": "getTransferDetails",
      "outputs": [
        {
          "components": [
            {
              "internalType": "uint256",
              "name": "tokenId",
              "type": "uint256"
            },
            {
              "internalType": "address",
              "name": "seller",
              "type": "address"
            },
            {
              "internalType": "address",
              "name": "buyer",
              "type": "address"
            },
            {
              "internalType": "uint256",
              "name": "price",
              "type": "uint256"
            },
            {
              "internalType": "uint256",
              "name": "escrowedAmount",
              "type": "uint256"
            },
            {
              "internalType": "enum LandTransferContract.TransferStatus",
              "name": "status",
              "type": "uint8"
            },
            {
              "internalType": "uint256",
              "name": "createdAt",
              "type": "uint256"
            },
            {
              "internalType": "uint256",
              "name": "expiresAt",
              "type": "uint256"
            },
            {
              "internalType": "string",
              "name": "legalDocumentCid",
              "type": "string"
            }
          ],
          "internalType": "struct LandTransferContract.TransferRequest",
          "name": "",
          "type": "tuple"
        }
      ],
      "stateMutability": "view",
      "type": "function"
    },
    {
      "inputs": [
        {
          "internalType": "uint256",
          "name": "tokenId",
          "type": "uint256"
        }
      ],
      "name": "hasActiveTransfer",
      "outputs": [
        {
          "internalType": "bool",
          "name": "",
          "type": "bool"
        }
      ],
      "stateMutability": "view",
      "type": "function"
    },
    {
      "inputs": [
        {
          "internalType": "uint256",
          "name": "tokenId",
          "type": "uint256"
        },
        {
          "internalType": "address",
          "name": "buyer",
          "type": "address"
        },
        {
          "internalType": "uint256",
          "name": "price",
          "type": "uint256"
        },
        {
          "internalType": "uint256",
          "name": "durationDays",
          "type": "uint256"
        },
        {
          "internalType": "string",
          "name": "legalDocumentCid",
          "type": "string"
        }
      ],
      "name": "initiateTransfer",
      "outputs": [
        {
          "internalType": "uint256",
          "name": "",
          "type": "uint256"
        }
      ],
      "stateMutability": "nonpayable",
      "type": "function"
    },
    {
      "inputs": [],
      "name": "landOwnershipNFT",
      "outputs": [
        {
          "internalType": "address",
          "name": "",
          "type": "address"
        }
      ],
      "stateMutability": "view",
      "type": "function"
    },
    {
      "inputs": [],
      "name": "minimumPrice",
      "outputs": [
        {
          "internalType": "uint256",
          "name": "",
          "type": "uint256"
        }
      ],
      "stateMutability": "view",
      "type": "function"
    },
    {
      "inputs": [],
      "name": "owner",
      "outputs": [
        {
          "internalType": "address",
          "name": "",
          "type": "address"
        }
      ],
      "stateMutability": "view",
      "type": "function"
    },
    {
      "inputs": [],
      "name": "renounceOwnership",
      "outputs": [],
      "stateMutability": "nonpayable",
      "type": "function"
    },
    {
      "inputs": [
        {
          "internalType": "address",
          "name": "_landOwnershipNFT",
          "type": "address"
        }
      ],
      "name": "setLandNFTContract",
      "outputs": [],
      "stateMutability": "nonpayable",
      "type": "function"
    },
    {
      "inputs": [
        {
          "internalType": "uint256",
          "name": "_minimumPrice",
          "type": "uint256"
        }
      ],
      "name": "setMinimumPrice",
      "outputs": [],
      "stateMutability": "nonpayable",
      "type": "function"
    },
    {
      "inputs": [],
      "name": "transferFeeBasisPoints",
      "outputs": [
        {
          "internalType": "uint256",
          "name": "",
          "type": "uint256"
        }
      ],
      "stateMutability": "view",
      "type": "function"
    },
    {
      "inputs": [
        {
          "internalType": "address",
          "name": "newOwner",
          "type": "address"
        }
      ],
      "name": "transferOwnership",
      "outputs": [],
      "stateMutability": "nonpayable",
      "type": "function"
    },
    {
      "inputs": [
        {
          "internalType": "uint256",
          "name": "",
          "type": "uint256"
        }
      ],
      "name": "transferRequests",
      "outputs": [
        {
          "internalType": "uint256",
          "name": "tokenId",
          "type": "uint256"
        },
        {
          "internalType": "address",
          "name": "seller",
          "type": "address"
        },
        {
          "internalType": "address",
          "name": "buyer",
          "type": "address"
        },
        {
          "internalType": "uint256",
          "name": "price",
          "type": "uint256"
        },
        {
          "internalType": "uint256",
          "name": "escrowedAmount",
          "type": "uint256"
        },
        {
          "internalType": "enum LandTransferContract.TransferStatus",
          "name": "status",
          "type": "uint8"
        },
        {
          "internalType": "uint256",
          "name": "createdAt",
          "type": "uint256"
        },
        {
          "internalType": "uint256",
          "name": "expiresAt",
          "type": "uint256"
        },
        {
          "internalType": "string",
          "name": "legalDocumentCid",
          "type": "string"
        }
      ],
      "stateMutability": "view",
      "type": "function"
    },
    {
      "inputs": [
        {
          "internalType": "uint256",
          "name": "_newFeeBasisPoints",
          "type": "uint256"
        },
        {
          "internalType": "address payable",
          "name": "_newFeeRecipient",
          "type": "address"
        }
      ],
      "name": "updateFees",
      "outputs": [],
      "stateMutability": "nonpayable",
      "type": "function"
    }
  ],
  "bytecode": "0x60803461012357601f6113bc38819003918201601f19168301916001600160401b03831184841017610127578084926060946040528339810103126101235780516001600160a01b03811691908290036101235760208101516040909101516001600160a01b0381169190829003610123573315610110575f8054336001600160a01b0319821681178355604051959290916001600160a01b0316907f8be0079c531659141344cd1fd0a4f28419497f9722a3daafe3b4186f6b6457e09080a36001805580156101015760018060a01b0319600254161760025560035560018060a01b031960045416176004555f6005556001600755611280908161013c8239f35b6305b93cc960e11b5f5260045ffd5b631e4fbdf760e01b5f525f60045260245ffd5b5f80fd5b634e487b7160e01b5f52604160045260245ffdfe60806040526004361015610011575f80fd5b5f3560e01c806303486c4014610f7c578063183767da14610f5f57806325cea97614610f3e5780634690484014610f1657806359caecb514610ddb57806360e7979314610d15578063619c83ed14610ab3578063621b12b41461082757806362f95f9d14610a8b57806365536e1a14610924578063715018a6146108cd5780637f386b6c146108b057806383bdc691146108865780638da5cb5b1461085f57806391e14d6a1461082757806392245ea2146103ce57806399a5d747146103a1578063ab9183f214610375578063cb991efe1461025e578063db2e21bc14610216578063dfeac9ca146101945763f2fde38b1461010b575f80fd5b3461019057602036600319011261019057610124611176565b61012c611204565b6001600160a01b0316801561017d575f80546001600160a01b03198116831782556001600160a01b0316907f8be0079c531659141344cd1fd0a4f28419497f9722a3daafe3b4186f6b6457e09080a3005b631e4fbdf760e01b5f525f60045260245ffd5b5f80fd5b34610190576020366003190112610190576101ad611176565b6101b5611204565b6001600160a01b0316801561020757600280546001600160a01b0319811683179091556001600160a01b03167fe87446db8273bfa9245972ebc0abb90d46091ae43a0f1d297e471a5735dcf4fc5f80a3005b6305b93cc960e11b5f5260045ffd5b34610190575f3660031901126101905761022e611204565b5f8080804760018060a01b038254165af16102476111b5565b501561024f57005b6327fcd9d160e01b5f5260045ffd5b60203660031901126101905760043561027561122a565b5f81815260066020526040902060018101546001600160a01b0316156103665760ff60058201541660038110156103525761034357600781015442116103345760028101546001600160a01b03163303610325576004016102d73482546111f7565b9055335f52600960205260405f206102f03482546111f7565b9055604051903482527fb409ea825f4b1779a3120785e760f7eef502acee7a2cc13b4b77294ebe8d878860203393a360018055005b635c427cd960e01b5f5260045ffd5b63f765373160e01b5f5260045ffd5b6308cd5ef960e31b5f5260045ffd5b634e487b7160e01b5f52602160045260245ffd5b632b44303360e11b5f5260045ffd5b34610190576020366003190112610190576004355f526008602052602060405f20541515604051908152f35b346101905760203660031901126101905760206127106103c56003546004356111e4565b04604051908152f35b346101905760a0366003190112610190576024356001600160a01b03811681036101905760643567ffffffffffffffff60843511610190573660236084350112156101905767ffffffffffffffff608435600401351161019057366024608435600401356084350101116101905761044461122a565b60055460443510610818576044351561080a576004355f52600860205260405f20546107fc575f8060018060a01b03600254166040518260208201916331a9108f60e11b83526004356024820152602481526104a1604482611083565b51925af16104ad6111b5565b90156107b75760208180518101031261019057602001516001600160a01b0381169081900361019057330361032557600754905f1982146107a35760018201600755620151808102908082046201518014901517156107a35761051090426111f7565b9160405161051d81611066565b600435815260208101338152604082019460018060a01b0384168652606083016044358152608084015f81525f60a086015260c085019142835260e0860193845261056d60843560040135611199565b9861057b6040519a8b611083565b6084356004810135808c529060240160208c01375f60046084358101358c0160209081018390526101008a019c8d528b83526006905260409091208851815596516001880180546001600160a01b03199081166001600160a01b03938416179091559251600289018054909416911617909155905160038087019190915591519085015560a0909401519360058401908510156103525760089460ff8019835416911617905551600683015551600782015501925192835167ffffffffffffffff811161078f5761064c825461102e565b601f811161074a575b50806020958690601f83116001146106e8575f926106dd575b50508160011b915f199060031b1c19161790555b6004355f52600883528160405f20556040519060018060a01b03168152604435838201523390827faba4521bf0b469fd90c564c1a5d168884d1fb05c2a6e6e6065d7921522683bbb604060043593a460018055604051908152f35b01519050868061066e565b5f8581528281209350601f198516905b818110610733575090846001959493921061071b575b505050811b019055610682565b01515f1960f88460031b161c1916905586808061070e565b9293896001819287860151815501950193016106f8565b825f5260205f20601f830160051c81019160208410610785575b601f0160051c01905b81811061077a5750610655565b5f815560010161076d565b9091508190610764565b634e487b7160e01b5f52604160045260245ffd5b634e487b7160e01b5f52601160045260245ffd5b60405162461bcd60e51b815260206004820152601a60248201527f4661696c656420746f20766572696679206f776e6572736869700000000000006044820152606490fd5b626995d560e31b5f5260045ffd5b62bfc92160e01b5f5260045ffd5b63def5fc2b60e01b5f5260045ffd5b34610190576020366003190112610190576001600160a01b03610848611176565b165f526009602052602060405f2054604051908152f35b34610190575f366003190112610190575f546040516001600160a01b039091168152602090f35b34610190576020366003190112610190576004355f526008602052602060405f2054604051908152f35b34610190575f366003190112610190576020600554604051908152f35b34610190575f366003190112610190576108e5611204565b5f80546001600160a01b0319811682556001600160a01b03167f8be0079c531659141344cd1fd0a4f28419497f9722a3daafe3b4186f6b6457e08280a3005b3461019057602036600319011261019057606061010060405161094681611066565b5f81525f60208201525f60408201525f838201525f60808201525f60a08201525f60c08201525f60e082015201526004355f52600660205260405f2060405161098e81611066565b8154815260018060a01b03600183015416916020820192835260018060a01b0360028201541660408301908152600382015491606084019283526004810154926080850193845260ff60058301541660a08601600382101561035257610a8795610a6792825260068501549360c08901948552610a19600860078801549760e08c01988952016110a5565b966101008a019788526040519a8b9a60208c525160208c015260018060a01b0390511660408b015260018060a01b0390511660608a01525160808901525160a08801525160c0870190611145565b5160e0850152516101008401525161012080840152610140830190611152565b0390f35b34610190575f366003190112610190576002546040516001600160a01b039091168152602090f35b3461019057602036600319011261019057600435610acf611204565b610ad761122a565b5f818152600660205260409020600181018054919290916001600160a01b03161561036657600583019260ff845416600381101561035257610343576004810180549160038101918254809410610d0657610b42612710610b3a600354876111e4565b04809561118c565b96600160ff1982541617905581545f5260086020525f6040812055805496600283019760018060a01b038954165f526009602052610b8560405f2091825461118c565b905560025487548954855460405163fc48b65360e01b602082019081526001600160a01b03948516602483015292841660448201526064808201929092529081525f9384931691908390610bda608482611083565b51925af1610be66111b5565b5015610cb55786545f918291829182916001600160a01b03165af1610c096111b5565b5015610cb55783151580610cf2575b610cc4575b54825490818111610c81575b505054935494549054604080516001600160a01b0393841681526020810192909252810192909252909316927f57eade392be7b1507cf043b7ea83f531e8ddb1ca813a3a81b726862da7322d0290606090a460018055005b5f80610c928194829497969761118c565b8a546001600160a01b03165af1610ca76111b5565b5015610cb557908680610c29565b6312171d8360e31b5f5260045ffd5b5f8080808760018060a01b03600454165af1610cde6111b5565b50610c1d576312171d8360e31b5f5260045ffd5b506004546001600160a01b03161515610c18565b631217157160e31b5f5260045ffd5b34610190576040366003190112610190576004356024356001600160a01b0381169081900361019057610d46611204565b6103e88211610d9e57816040917ffcf5f9272484d8203de65a0560b76f7d72db12418286025f31d5f27a7715227a93600355806bffffffffffffffffffffffff60a01b600454161760045582519182526020820152a1005b60405162461bcd60e51b81526020600482015260156024820152744665652063616e6e6f74206578636565642031302560581b6044820152606490fd5b3461019057602036600319011261019057600435610df761122a565b5f81815260066020526040902060018101549091906001600160a01b0316801561036657600583019060ff8254166003811015610352576103435733148015610f00575b8015610eed575b1561032557600260ff1982541617905581545f5260086020525f60408120556004820180549081610e9e575b5050339154907f78d9e3ff7c8e727545c4d90127942628780d4b14c7f1880e458c4b7fa57edd155f80a460018055005b5f808093818094556002870160018060a01b038154168352600960205260408320610eca83825461118c565b9055546001600160a01b03165af1610ee06111b5565b501561024f578280610e6e565b505f546001600160a01b03163314610e42565b5060028301546001600160a01b03163314610e3b565b34610190575f366003190112610190576004546040516001600160a01b039091168152602090f35b3461019057602036600319011261019057610f57611204565b600435600555005b34610190575f366003190112610190576020600354604051908152f35b34610190576020366003190112610190576004355f52600660205260405f208054610a8760018060a01b036001840154169260018060a01b03600282015416906003810154611010600483015460ff60058501541690600685015493610fe96008600788015497016110a5565b966040519a8b9a8b5260208b015260408a01526060890152608088015260a0870190611145565b60c085015260e0840152610120610100840152610120830190611152565b90600182811c9216801561105c575b602083101461104857565b634e487b7160e01b5f52602260045260245ffd5b91607f169161103d565b610120810190811067ffffffffffffffff82111761078f57604052565b90601f8019910116810190811067ffffffffffffffff82111761078f57604052565b9060405191825f8254926110b88461102e565b808452936001811690811561112357506001146110df575b506110dd92500383611083565b565b90505f9291925260205f20905f915b8183106111075750509060206110dd928201015f6110d0565b60209193508060019154838589010152019101909184926110ee565b9050602092506110dd94915060ff191682840152151560051b8201015f6110d0565b9060038210156103525752565b805180835260209291819084018484015e5f828201840152601f01601f1916010190565b600435906001600160a01b038216820361019057565b919082039182116107a357565b67ffffffffffffffff811161078f57601f01601f191660200190565b3d156111df573d906111c682611199565b916111d46040519384611083565b82523d5f602084013e565b606090565b818102929181159184041417156107a357565b919082018092116107a357565b5f546001600160a01b0316330361121757565b63118cdaa760e01b5f523360045260245ffd5b60026001541461123b576002600155565b633ee5aeb560e01b5f5260045ffdfea2646970667358221220c8392256b5c34cc4148dc62899253a4b69ff24ff8c507f46740453c3302ed87164736f6c634300081c0033",
  "linkReferences": {},
  "deployedLinkReferences": {},
  "immutableReferences": {},
  "inputSourceName": "project/contracts/LandTransferContract.sol",
  "buildInfoId": "solc-0_8_28-aa42b513112b3ac845e5998207f396f18f7c55b3"
}