{
  "_format": "hh3-artifact-1",
  "contractName": "LandTransferContract",
  "sourceName": "contracts/LandTransferContract.sol",
  "abi": [
    {
      "inputs": [
        {
          "internalType": "address",
          "name": "_landOwnershipNFT",
          "type": "address"
        }
      ],
      "stateMutability": "nonpayable",
      "type": "constructor"
    },
    {
      "inputs": [],
      "name": "InvalidLandNFTContract",
      "type": "error"
    },
    {
      "inputs": [
        {
          "internalType": "address",
          "name": "owner",
          "type": "address"
        }
      ],
      "name": "OwnableInvalidOwner",
      "type": "error"
    },
    {
      "inputs": [
        {
          "internalType": "address",
          "name": "account",
          "type": "address"
        }
      ],
      "name": "OwnableUnauthorizedAccount",
      "type": "error"
    },
    {
      "inputs": [],
      "name": "TransferAlreadyExists",
      "type": "error"
    },
    {
      "inputs": [],
      "name": "TransferFailed",
      "type": "error"
    },
    {
      "inputs": [],
      "name": "TransferNotFound",
      "type": "error"
    },
    {
      "inputs": [],
      "name": "TransferNotPending",
      "type": "error"
    },
    {
      "inputs": [],
      "name": "UnauthorizedCaller",
      "type": "error"
    },
    {
      "anonymous": false,
      "inputs": [
        {
          "indexed": true,
          "internalType": "address",
          "name": "oldContract",
          "type": "address"
        },
        {
          "indexed": true,
          "internalType": "address",
          "name": "newContract",
          "type": "address"
        }
      ],
      "name": "LandNFTContractUpdated",
      "type": "event"
    },
    {
      "anonymous": false,
      "inputs": [
        {
          "indexed": true,
          "internalType": "address",
          "name": "previousOwner",
          "type": "address"
        },
        {
          "indexed": true,
          "internalType": "address",
          "name": "newOwner",
          "type": "address"
        }
      ],
      "name": "OwnershipTransferred",
      "type": "event"
    },
    {
      "anonymous": false,
      "inputs": [
        {
          "indexed": true,
          "internalType": "uint256",
          "name": "transferId",
          "type": "uint256"
        },
        {
          "indexed": true,
          "internalType": "uint256",
          "name": "tokenId",
          "type": "uint256"
        },
        {
          "indexed": true,
          "internalType": "address",
          "name": "initiator",
          "type": "address"
        }
      ],
      "name": "TransferCancelled",
      "type": "event"
    },
    {
      "anonymous": false,
      "inputs": [
        {
          "indexed": true,
          "internalType": "uint256",
          "name": "transferId",
          "type": "uint256"
        },
        {
          "indexed": true,
          "internalType": "uint256",
          "name": "tokenId",
          "type": "uint256"
        },
        {
          "indexed": true,
          "internalType": "address",
          "name": "seller",
          "type": "address"
        },
        {
          "indexed": false,
          "internalType": "address",
          "name": "buyer",
          "type": "address"
        }
      ],
      "name": "TransferCompleted",
      "type": "event"
    },
    {
      "anonymous": false,
      "inputs": [
        {
          "indexed": true,
          "internalType": "uint256",
          "name": "transferId",
          "type": "uint256"
        },
        {
          "indexed": true,
          "internalType": "uint256",
          "name": "tokenId",
          "type": "uint256"
        },
        {
          "indexed": true,
          "internalType": "address",
          "name": "seller",
          "type": "address"
        },
        {
          "indexed": false,
          "internalType": "address",
          "name": "buyer",
          "type": "address"
        }
      ],
      "name": "TransferInitiated",
      "type": "event"
    },
    {
      "inputs": [
        {
          "internalType": "uint256",
          "name": "",
          "type": "uint256"
        }
      ],
      "name": "activeTransfers",
      "outputs": [
        {
          "internalType": "uint256",
          "name": "",
          "type": "uint256"
        }
      ],
      "stateMutability": "view",
      "type": "function"
    },
    {
      "inputs": [
        {
          "internalType": "uint256",
          "name": "transferId",
          "type": "uint256"
        }
      ],
      "name": "cancelTransfer",
      "outputs": [],
      "stateMutability": "nonpayable",
      "type": "function"
    },
    {
      "inputs": [
        {
          "internalType": "uint256",
          "name": "transferId",
          "type": "uint256"
        }
      ],
      "name": "completeTransfer",
      "outputs": [],
      "stateMutability": "nonpayable",
      "type": "function"
    },
    {
      "inputs": [
        {
          "internalType": "uint256",
          "name": "transferId",
          "type": "uint256"
        }
      ],
      "name": "getTransferDetails",
      "outputs": [
        {
          "components": [
            {
              "internalType": "uint256",
              "name": "tokenId",
              "type": "uint256"
            },
            {
              "internalType": "address",
              "name": "seller",
              "type": "address"
            },
            {
              "internalType": "address",
              "name": "buyer",
              "type": "address"
            },
            {
              "internalType": "enum LandTransferContract.TransferStatus",
              "name": "status",
              "type": "uint8"
            },
            {
              "internalType": "uint256",
              "name": "createdAt",
              "type": "uint256"
            },
            {
              "internalType": "string",
              "name": "legalDocumentCid",
              "type": "string"
            }
          ],
          "internalType": "struct LandTransferContract.TransferRequest",
          "name": "",
          "type": "tuple"
        }
      ],
      "stateMutability": "view",
      "type": "function"
    },
    {
      "inputs": [
        {
          "internalType": "uint256",
          "name": "tokenId",
          "type": "uint256"
        }
      ],
      "name": "hasActiveTransfer",
      "outputs": [
        {
          "internalType": "bool",
          "name": "",
          "type": "bool"
        }
      ],
      "stateMutability": "view",
      "type": "function"
    },
    {
      "inputs": [
        {
          "internalType": "uint256",
          "name": "tokenId",
          "type": "uint256"
        },
        {
          "internalType": "address",
          "name": "buyer",
          "type": "address"
        },
        {
          "internalType": "string",
          "name": "legalDocumentCid",
          "type": "string"
        }
      ],
      "name": "initiateTransfer",
      "outputs": [
        {
          "internalType": "uint256",
          "name": "",
          "type": "uint256"
        }
      ],
      "stateMutability": "nonpayable",
      "type": "function"
    },
    {
      "inputs": [],
      "name": "landOwnershipNFT",
      "outputs": [
        {
          "internalType": "address",
          "name": "",
          "type": "address"
        }
      ],
      "stateMutability": "view",
      "type": "function"
    },
    {
      "inputs": [],
      "name": "owner",
      "outputs": [
        {
          "internalType": "address",
          "name": "",
          "type": "address"
        }
      ],
      "stateMutability": "view",
      "type": "function"
    },
    {
      "inputs": [],
      "name": "renounceOwnership",
      "outputs": [],
      "stateMutability": "nonpayable",
      "type": "function"
    },
    {
      "inputs": [
        {
          "internalType": "address",
          "name": "_landOwnershipNFT",
          "type": "address"
        }
      ],
      "name": "setLandNFTContract",
      "outputs": [],
      "stateMutability": "nonpayable",
      "type": "function"
    },
    {
      "inputs": [
        {
          "internalType": "address",
          "name": "newOwner",
          "type": "address"
        }
      ],
      "name": "transferOwnership",
      "outputs": [],
      "stateMutability": "nonpayable",
      "type": "function"
    },
    {
      "inputs": [
        {
          "internalType": "uint256",
          "name": "",
          "type": "uint256"
        }
      ],
      "name": "transferRequests",
      "outputs": [
        {
          "internalType": "uint256",
          "name": "tokenId",
          "type": "uint256"
        },
        {
          "internalType": "address",
          "name": "seller",
          "type": "address"
        },
        {
          "internalType": "address",
          "name": "buyer",
          "type": "address"
        },
        {
          "internalType": "enum LandTransferContract.TransferStatus",
          "name": "status",
          "type": "uint8"
        },
        {
          "internalType": "uint256",
          "name": "createdAt",
          "type": "uint256"
        },
        {
          "internalType": "string",
          "name": "legalDocumentCid",
          "type": "string"
        }
      ],
      "stateMutability": "view",
      "type": "function"
    }
  ],
  "bytecode": "0x6080346100ea57601f610d2f38819003918201601f19168301916001600160401b038311848410176100ee578084926020946040528339810103126100ea57516001600160a01b038116908190036100ea5733156100d7575f8054336001600160a01b0319821681178355604051939290916001600160a01b0316907f8be0079c531659141344cd1fd0a4f28419497f9722a3daafe3b4186f6b6457e09080a380156100c857600180546001600160a01b031916919091178155600355610c2c90816101038239f35b6305b93cc960e11b5f5260045ffd5b631e4fbdf760e01b5f525f60045260245ffd5b5f80fd5b634e487b7160e01b5f52604160045260245ffdfe60806040526004361015610011575f80fd5b5f3560e01c806303486c401461099a57806359caecb5146108bf578063619c83ed1461077057806362f95f9d1461074857806365536e1a14610633578063715018a6146105dc5780637b53d2881461022557806383bdc691146101fb5780638da5cb5b146101d4578063ab9183f2146101a8578063dfeac9ca146101265763f2fde38b1461009d575f80fd5b34610122576020366003190112610122576100b6610b6f565b6100be610bd0565b6001600160a01b0316801561010f575f80546001600160a01b03198116831782556001600160a01b0316907f8be0079c531659141344cd1fd0a4f28419497f9722a3daafe3b4186f6b6457e09080a3005b631e4fbdf760e01b5f525f60045260245ffd5b5f80fd5b346101225760203660031901126101225761013f610b6f565b610147610bd0565b6001600160a01b0316801561019957600180546001600160a01b0319811683179091556001600160a01b03167fe87446db8273bfa9245972ebc0abb90d46091ae43a0f1d297e471a5735dcf4fc5f80a3005b6305b93cc960e11b5f5260045ffd5b34610122576020366003190112610122576004355f526004602052602060405f20541515604051908152f35b34610122575f366003190112610122575f546040516001600160a01b039091168152602090f35b34610122576020366003190112610122576004355f526004602052602060405f2054604051908152f35b34610122576060366003190112610122576024356001600160a01b0381169060043590829003610122576044359167ffffffffffffffff831161012257366023840112156101225782600401359167ffffffffffffffff831161012257366024848601011161012257805f52600460205260405f20546105ce575f8060018060a01b03600154166040518260208201916331a9108f60e11b8352866024820152602481526102d4604482610a7c565b51925af16102e0610ba1565b90156105895760208180518101031261012257602001516001600160a01b0381169081900361012257330361057a57600354925f198414610566576001840160035560405161032e81610a60565b8281526020810191338352604082019285845260608301905f825260808401924284528061035b81610b85565b9a6040519b61036a908d610a7c565b818c5260240160208c01375f6020918b01820181905260a086019a8b52898152600291829052604090209451855590516001850180546001600160a01b03199081166001600160a01b0393841617909155955191850180549096169116178455519260038410156105525760049381549060ff60a01b9060a01b169060ff60a01b191617905551600382015501935193845167ffffffffffffffff811161053e576104158254610a28565b601f81116104f9575b50806020968790601f8311600114610497575f9261048c575b50508160011b915f199060031b1c19161790555b805f52600484528260405f2055604051918252827f1c2efbc9fb1caf45833e3cf6ce322b04cd616c58a60231fee8ce75354d74575d853394a4604051908152f35b015190508780610437565b5f8581528281209350601f198516905b8181106104e257509084600195949392106104ca575b505050811b01905561044b565b01515f1960f88460031b161c191690558780806104bd565b92938a6001819287860151815501950193016104a7565b825f5260205f20601f830160051c81019160208410610534575b601f0160051c01905b818110610529575061041e565b5f815560010161051c565b9091508190610513565b634e487b7160e01b5f52604160045260245ffd5b634e487b7160e01b5f52602160045260245ffd5b634e487b7160e01b5f52601160045260245ffd5b635c427cd960e01b5f5260045ffd5b60405162461bcd60e51b815260206004820152601a60248201527f4661696c656420746f20766572696679206f776e6572736869700000000000006044820152606490fd5b626995d560e31b5f5260045ffd5b34610122575f366003190112610122576105f4610bd0565b5f80546001600160a01b0319811682556001600160a01b03167f8be0079c531659141344cd1fd0a4f28419497f9722a3daafe3b4186f6b6457e08280a3005b3461012257602036600319011261012257606060a060405161065481610a60565b5f81525f60208201525f60408201525f838201525f608082015201526004355f52600260205260405f2060405161068a81610a60565b8154815260018201546001600160a01b03908116602083019081526002840154918216604084019081529093606084019260a01c60ff166003811015610552578361072d9161074495526106ec60046003850154946080890195865201610a9e565b9360a087019485526040519788976020895251602089015260018060a01b03905116604088015260018060a01b039051166060870152516080860190610b3e565b5160a08401525160c08084015260e0830190610b4b565b0390f35b34610122575f366003190112610122576001546040516001600160a01b039091168152602090f35b346101225760203660031901126101225760043561078c610bd0565b5f818152600260205260409020600181018054919290916001600160a01b0316156108b057600283019260ff845460a01c166003811015610552576108a157835460ff60a01b1916600160a01b17845580545f908152600460209081526040808320839055600154865488548654935163fc48b65360e01b9581019586526001600160a01b039283166024820152908216604482015260648082019490945292835284939116918390610840608482610a7c565b51925af161084c610ba1565b50156108925754915492546040516001600160a01b0391821681529316927f471d8af79d41805c670831ee9feadc72da293f634b1e13b912cec15450d1ed5c90602090a4005b6312171d8360e31b5f5260045ffd5b6308cd5ef960e31b5f5260045ffd5b632b44303360e11b5f5260045ffd5b34610122576020366003190112610122576004355f81815260026020526040902060018101549091906001600160a01b031680156108b057600283019081549060ff8260a01c166003811015610552576108a1573314908115610987575b508015610974575b1561057a57600160a11b60ff60a01b1982541617905581545f5260046020525f6040812055339154907f78d9e3ff7c8e727545c4d90127942628780d4b14c7f1880e458c4b7fa57edd155f80a4005b505f546001600160a01b03163314610925565b6001600160a01b0316331490508461091d565b34610122576020366003190112610122576004355f52600260205260405f20805461074460018060a01b0360018401541692600281015490610a126109e6600460038401549301610a9e565b926040519687968752602087015260018060a01b038116604087015260ff606087019160a01c16610b3e565b608084015260c060a084015260c0830190610b4b565b90600182811c92168015610a56575b6020831014610a4257565b634e487b7160e01b5f52602260045260245ffd5b91607f1691610a37565b60c0810190811067ffffffffffffffff82111761053e57604052565b90601f8019910116810190811067ffffffffffffffff82111761053e57604052565b9060405191825f825492610ab184610a28565b8084529360018116908115610b1c5750600114610ad8575b50610ad692500383610a7c565b565b90505f9291925260205f20905f915b818310610b00575050906020610ad6928201015f610ac9565b6020919350806001915483858901015201910190918492610ae7565b905060209250610ad694915060ff191682840152151560051b8201015f610ac9565b9060038210156105525752565b805180835260209291819084018484015e5f828201840152601f01601f1916010190565b600435906001600160a01b038216820361012257565b67ffffffffffffffff811161053e57601f01601f191660200190565b3d15610bcb573d90610bb282610b85565b91610bc06040519384610a7c565b82523d5f602084013e565b606090565b5f546001600160a01b03163303610be357565b63118cdaa760e01b5f523360045260245ffdfea26469706673582212203e88db4c2be6901a33481915bc52d14558f91ac1ecb2da1e7b92131bcde68d4964736f6c634300081c0033",
  "linkReferences": {},
  "deployedLinkReferences": {},
  "immutableReferences": {},
  "inputSourceName": "project/contracts/LandTransferContract.sol",
  "buildInfoId": "solc-0_8_28-3bad1eaa12e2cb8a9eb14985d7e64a0f31db0f88"
}