{
  "_format": "hh3-artifact-1",
  "contractName": "LandOwnershipNFT",
  "sourceName": "contracts/LandOwnershipNFT.sol",
  "abi": [
    {
      "inputs": [],
      "stateMutability": "nonpayable",
      "type": "constructor"
    },
    {
      "inputs": [
        {
          "internalType": "address",
          "name": "sender",
          "type": "address"
        },
        {
          "internalType": "uint256",
          "name": "tokenId",
          "type": "uint256"
        },
        {
          "internalType": "address",
          "name": "owner",
          "type": "address"
        }
      ],
      "name": "ERC721IncorrectOwner",
      "type": "error"
    },
    {
      "inputs": [
        {
          "internalType": "address",
          "name": "operator",
          "type": "address"
        },
        {
          "internalType": "uint256",
          "name": "tokenId",
          "type": "uint256"
        }
      ],
      "name": "ERC721InsufficientApproval",
      "type": "error"
    },
    {
      "inputs": [
        {
          "internalType": "address",
          "name": "approver",
          "type": "address"
        }
      ],
      "name": "ERC721InvalidApprover",
      "type": "error"
    },
    {
      "inputs": [
        {
          "internalType": "address",
          "name": "operator",
          "type": "address"
        }
      ],
      "name": "ERC721InvalidOperator",
      "type": "error"
    },
    {
      "inputs": [
        {
          "internalType": "address",
          "name": "owner",
          "type": "address"
        }
      ],
      "name": "ERC721InvalidOwner",
      "type": "error"
    },
    {
      "inputs": [
        {
          "internalType": "address",
          "name": "receiver",
          "type": "address"
        }
      ],
      "name": "ERC721InvalidReceiver",
      "type": "error"
    },
    {
      "inputs": [
        {
          "internalType": "address",
          "name": "sender",
          "type": "address"
        }
      ],
      "name": "ERC721InvalidSender",
      "type": "error"
    },
    {
      "inputs": [
        {
          "internalType": "uint256",
          "name": "tokenId",
          "type": "uint256"
        }
      ],
      "name": "ERC721NonexistentToken",
      "type": "error"
    },
    {
      "inputs": [],
      "name": "InvalidAddress",
      "type": "error"
    },
    {
      "inputs": [
        {
          "internalType": "address",
          "name": "owner",
          "type": "address"
        }
      ],
      "name": "OwnableInvalidOwner",
      "type": "error"
    },
    {
      "inputs": [
        {
          "internalType": "address",
          "name": "account",
          "type": "address"
        }
      ],
      "name": "OwnableUnauthorizedAccount",
      "type": "error"
    },
    {
      "inputs": [],
      "name": "TokenDoesNotExist",
      "type": "error"
    },
    {
      "inputs": [],
      "name": "UnauthorizedTransfer",
      "type": "error"
    },
    {
      "anonymous": false,
      "inputs": [
        {
          "indexed": true,
          "internalType": "address",
          "name": "owner",
          "type": "address"
        },
        {
          "indexed": true,
          "internalType": "address",
          "name": "approved",
          "type": "address"
        },
        {
          "indexed": true,
          "internalType": "uint256",
          "name": "tokenId",
          "type": "uint256"
        }
      ],
      "name": "Approval",
      "type": "event"
    },
    {
      "anonymous": false,
      "inputs": [
        {
          "indexed": true,
          "internalType": "address",
          "name": "owner",
          "type": "address"
        },
        {
          "indexed": true,
          "internalType": "address",
          "name": "operator",
          "type": "address"
        },
        {
          "indexed": false,
          "internalType": "bool",
          "name": "approved",
          "type": "bool"
        }
      ],
      "name": "ApprovalForAll",
      "type": "event"
    },
    {
      "anonymous": false,
      "inputs": [
        {
          "indexed": true,
          "internalType": "address",
          "name": "from",
          "type": "address"
        },
        {
          "indexed": true,
          "internalType": "address",
          "name": "to",
          "type": "address"
        },
        {
          "indexed": true,
          "internalType": "uint256",
          "name": "tokenId",
          "type": "uint256"
        }
      ],
      "name": "AuthorizedTransfer",
      "type": "event"
    },
    {
      "anonymous": false,
      "inputs": [
        {
          "indexed": true,
          "internalType": "address",
          "name": "to",
          "type": "address"
        },
        {
          "indexed": true,
          "internalType": "uint256",
          "name": "tokenId",
          "type": "uint256"
        },
        {
          "indexed": false,
          "internalType": "string",
          "name": "metadataCid",
          "type": "string"
        }
      ],
      "name": "LandOwnershipMinted",
      "type": "event"
    },
    {
      "anonymous": false,
      "inputs": [
        {
          "indexed": true,
          "internalType": "address",
          "name": "previousOwner",
          "type": "address"
        },
        {
          "indexed": true,
          "internalType": "address",
          "name": "newOwner",
          "type": "address"
        }
      ],
      "name": "OwnershipTransferred",
      "type": "event"
    },
    {
      "anonymous": false,
      "inputs": [
        {
          "indexed": true,
          "internalType": "address",
          "name": "from",
          "type": "address"
        },
        {
          "indexed": true,
          "internalType": "address",
          "name": "to",
          "type": "address"
        },
        {
          "indexed": true,
          "internalType": "uint256",
          "name": "tokenId",
          "type": "uint256"
        }
      ],
      "name": "Transfer",
      "type": "event"
    },
    {
      "anonymous": false,
      "inputs": [
        {
          "indexed": true,
          "internalType": "address",
          "name": "oldContract",
          "type": "address"
        },
        {
          "indexed": true,
          "internalType": "address",
          "name": "newContract",
          "type": "address"
        }
      ],
      "name": "TransferContractUpdated",
      "type": "event"
    },
    {
      "inputs": [
        {
          "internalType": "uint256",
          "name": "tokenId",
          "type": "uint256"
        },
        {
          "internalType": "string",
          "name": "cid",
          "type": "string"
        },
        {
          "internalType": "string",
          "name": "filename",
          "type": "string"
        },
        {
          "internalType": "string",
          "name": "mime",
          "type": "string"
        },
        {
          "internalType": "uint256",
          "name": "size",
          "type": "uint256"
        },
        {
          "internalType": "string",
          "name": "iv",
          "type": "string"
        },
        {
          "internalType": "string",
          "name": "ciphertextHash",
          "type": "string"
        },
        {
          "internalType": "string",
          "name": "tag",
          "type": "string"
        }
      ],
      "name": "addFileToToken",
      "outputs": [],
      "stateMutability": "nonpayable",
      "type": "function"
    },
    {
      "inputs": [
        {
          "internalType": "address",
          "name": "",
          "type": "address"
        },
        {
          "internalType": "uint256",
          "name": "",
          "type": "uint256"
        }
      ],
      "name": "approve",
      "outputs": [],
      "stateMutability": "nonpayable",
      "type": "function"
    },
    {
      "inputs": [
        {
          "internalType": "address",
          "name": "from",
          "type": "address"
        },
        {
          "internalType": "address",
          "name": "to",
          "type": "address"
        },
        {
          "internalType": "uint256",
          "name": "tokenId",
          "type": "uint256"
        }
      ],
      "name": "authorizedTransfer",
      "outputs": [],
      "stateMutability": "nonpayable",
      "type": "function"
    },
    {
      "inputs": [
        {
          "internalType": "address",
          "name": "owner",
          "type": "address"
        }
      ],
      "name": "balanceOf",
      "outputs": [
        {
          "internalType": "uint256",
          "name": "",
          "type": "uint256"
        }
      ],
      "stateMutability": "view",
      "type": "function"
    },
    {
      "inputs": [
        {
          "internalType": "uint256",
          "name": "tokenId",
          "type": "uint256"
        }
      ],
      "name": "getApproved",
      "outputs": [
        {
          "internalType": "address",
          "name": "",
          "type": "address"
        }
      ],
      "stateMutability": "view",
      "type": "function"
    },
    {
      "inputs": [
        {
          "internalType": "uint256",
          "name": "tokenId",
          "type": "uint256"
        }
      ],
      "name": "getMetadata",
      "outputs": [
        {
          "components": [
            {
              "internalType": "string",
              "name": "requestType",
              "type": "string"
            },
            {
              "internalType": "string",
              "name": "minimalPublicLabel",
              "type": "string"
            },
            {
              "internalType": "string",
              "name": "metadataCid",
              "type": "string"
            },
            {
              "internalType": "string",
              "name": "metadataHash",
              "type": "string"
            },
            {
              "internalType": "string",
              "name": "uploaderSignature",
              "type": "string"
            },
            {
              "components": [
                {
                  "internalType": "string",
                  "name": "cid",
                  "type": "string"
                },
                {
                  "internalType": "string",
                  "name": "filename",
                  "type": "string"
                },
                {
                  "internalType": "string",
                  "name": "mime",
                  "type": "string"
                },
                {
                  "internalType": "uint256",
                  "name": "size",
                  "type": "uint256"
                },
                {
                  "internalType": "string",
                  "name": "iv",
                  "type": "string"
                },
                {
                  "internalType": "string",
                  "name": "ciphertextHash",
                  "type": "string"
                },
                {
                  "internalType": "string",
                  "name": "tag",
                  "type": "string"
                }
              ],
              "internalType": "struct LandOwnershipNFT.DocMeta[]",
              "name": "files",
              "type": "tuple[]"
            },
            {
              "internalType": "string",
              "name": "consentTextVersion",
              "type": "string"
            },
            {
              "internalType": "uint256",
              "name": "consentTimestamp",
              "type": "uint256"
            }
          ],
          "internalType": "struct LandOwnershipNFT.LandOwnershipMetadata",
          "name": "",
          "type": "tuple"
        }
      ],
      "stateMutability": "view",
      "type": "function"
    },
    {
      "inputs": [
        {
          "internalType": "address",
          "name": "wallet",
          "type": "address"
        }
      ],
      "name": "getTokensByWallet",
      "outputs": [
        {
          "internalType": "uint256[]",
          "name": "",
          "type": "uint256[]"
        }
      ],
      "stateMutability": "view",
      "type": "function"
    },
    {
      "inputs": [
        {
          "internalType": "address",
          "name": "owner",
          "type": "address"
        },
        {
          "internalType": "address",
          "name": "operator",
          "type": "address"
        }
      ],
      "name": "isApprovedForAll",
      "outputs": [
        {
          "internalType": "bool",
          "name": "",
          "type": "bool"
        }
      ],
      "stateMutability": "view",
      "type": "function"
    },
    {
      "inputs": [
        {
          "internalType": "address",
          "name": "to",
          "type": "address"
        },
        {
          "internalType": "string",
          "name": "requestType",
          "type": "string"
        },
        {
          "internalType": "string",
          "name": "minimalPublicLabel",
          "type": "string"
        },
        {
          "internalType": "string",
          "name": "metadataCid",
          "type": "string"
        },
        {
          "internalType": "string",
          "name": "metadataHash",
          "type": "string"
        },
        {
          "internalType": "string",
          "name": "uploaderSignature",
          "type": "string"
        },
        {
          "internalType": "string",
          "name": "consentTextVersion",
          "type": "string"
        },
        {
          "internalType": "uint256",
          "name": "consentTimestamp",
          "type": "uint256"
        }
      ],
      "name": "mintLandOwnership",
      "outputs": [
        {
          "internalType": "uint256",
          "name": "",
          "type": "uint256"
        }
      ],
      "stateMutability": "nonpayable",
      "type": "function"
    },
    {
      "inputs": [],
      "name": "name",
      "outputs": [
        {
          "internalType": "string",
          "name": "",
          "type": "string"
        }
      ],
      "stateMutability": "view",
      "type": "function"
    },
    {
      "inputs": [],
      "name": "owner",
      "outputs": [
        {
          "internalType": "address",
          "name": "",
          "type": "address"
        }
      ],
      "stateMutability": "view",
      "type": "function"
    },
    {
      "inputs": [
        {
          "internalType": "uint256",
          "name": "tokenId",
          "type": "uint256"
        }
      ],
      "name": "ownerOf",
      "outputs": [
        {
          "internalType": "address",
          "name": "",
          "type": "address"
        }
      ],
      "stateMutability": "view",
      "type": "function"
    },
    {
      "inputs": [],
      "name": "renounceOwnership",
      "outputs": [],
      "stateMutability": "nonpayable",
      "type": "function"
    },
    {
      "inputs": [
        {
          "internalType": "address",
          "name": "from",
          "type": "address"
        },
        {
          "internalType": "address",
          "name": "to",
          "type": "address"
        },
        {
          "internalType": "uint256",
          "name": "tokenId",
          "type": "uint256"
        }
      ],
      "name": "safeTransferFrom",
      "outputs": [],
      "stateMutability": "nonpayable",
      "type": "function"
    },
    {
      "inputs": [
        {
          "internalType": "address",
          "name": "from",
          "type": "address"
        },
        {
          "internalType": "address",
          "name": "to",
          "type": "address"
        },
        {
          "internalType": "uint256",
          "name": "tokenId",
          "type": "uint256"
        },
        {
          "internalType": "bytes",
          "name": "data",
          "type": "bytes"
        }
      ],
      "name": "safeTransferFrom",
      "outputs": [],
      "stateMutability": "nonpayable",
      "type": "function"
    },
    {
      "inputs": [
        {
          "internalType": "address",
          "name": "",
          "type": "address"
        },
        {
          "internalType": "bool",
          "name": "",
          "type": "bool"
        }
      ],
      "name": "setApprovalForAll",
      "outputs": [],
      "stateMutability": "nonpayable",
      "type": "function"
    },
    {
      "inputs": [
        {
          "internalType": "address",
          "name": "_transferContract",
          "type": "address"
        }
      ],
      "name": "setTransferContract",
      "outputs": [],
      "stateMutability": "nonpayable",
      "type": "function"
    },
    {
      "inputs": [
        {
          "internalType": "bytes4",
          "name": "interfaceId",
          "type": "bytes4"
        }
      ],
      "name": "supportsInterface",
      "outputs": [
        {
          "internalType": "bool",
          "name": "",
          "type": "bool"
        }
      ],
      "stateMutability": "view",
      "type": "function"
    },
    {
      "inputs": [],
      "name": "symbol",
      "outputs": [
        {
          "internalType": "string",
          "name": "",
          "type": "string"
        }
      ],
      "stateMutability": "view",
      "type": "function"
    },
    {
      "inputs": [
        {
          "internalType": "uint256",
          "name": "tokenId",
          "type": "uint256"
        }
      ],
      "name": "tokenURI",
      "outputs": [
        {
          "internalType": "string",
          "name": "",
          "type": "string"
        }
      ],
      "stateMutability": "view",
      "type": "function"
    },
    {
      "inputs": [],
      "name": "totalSupply",
      "outputs": [
        {
          "internalType": "uint256",
          "name": "",
          "type": "uint256"
        }
      ],
      "stateMutability": "view",
      "type": "function"
    },
    {
      "inputs": [],
      "name": "transferContract",
      "outputs": [
        {
          "internalType": "address",
          "name": "",
          "type": "address"
        }
      ],
      "stateMutability": "view",
      "type": "function"
    },
    {
      "inputs": [
        {
          "internalType": "address",
          "name": "from",
          "type": "address"
        },
        {
          "internalType": "address",
          "name": "to",
          "type": "address"
        },
        {
          "internalType": "uint256",
          "name": "tokenId",
          "type": "uint256"
        }
      ],
      "name": "transferFrom",
      "outputs": [],
      "stateMutability": "nonpayable",
      "type": "function"
    },
    {
      "inputs": [
        {
          "internalType": "address",
          "name": "newOwner",
          "type": "address"
        }
      ],
      "name": "transferOwnership",
      "outputs": [],
      "stateMutability": "nonpayable",
      "type": "function"
    }
  ],
  "bytecode": "0x60806040523461038457604080519081016001600160401b0381118282101761029a576040908152601482527f4c616e64204f776e6572736869702050726f6f66000000000000000000000000602083015280519081016001600160401b0381118282101761029a5760405260048152631310539160e21b602082015281516001600160401b03811161029a575f54600181811c9116801561037a575b602082101461027c57601f8111610318575b50602092601f82116001146102b957928192935f926102ae575b50508160011b915f199060031b1c1916175f555b80516001600160401b03811161029a57600154600181811c91168015610290575b602082101461027c57601f8111610219575b50602091601f82116001146101b9579181925f926101ae575b50508160011b915f199060031b1c1916176001555b331561019b5760068054336001600160a01b03198216811790925560405191906001600160a01b03167f8be0079c531659141344cd1fd0a4f28419497f9722a3daafe3b4186f6b6457e05f80a3600160075561236f90816103898239f35b631e4fbdf760e01b5f525f60045260245ffd5b015190505f80610128565b601f1982169260015f52805f20915f5b858110610201575083600195106101e9575b505050811b0160015561013d565b01515f1960f88460031b161c191690555f80806101db565b919260206001819286850151815501940192016101c9565b60015f527fb10e2d527612073b26eecdfd717e6a320cf44b4afac2b0732d9fcbe2b7fa0cf6601f830160051c81019160208410610272575b601f0160051c01905b818110610267575061010f565b5f815560010161025a565b9091508190610251565b634e487b7160e01b5f52602260045260245ffd5b90607f16906100fd565b634e487b7160e01b5f52604160045260245ffd5b015190505f806100c8565b601f198216935f8052805f20915f5b86811061030057508360019596106102e8575b505050811b015f556100dc565b01515f1960f88460031b161c191690555f80806102db565b919260206001819286850151815501940192016102c8565b5f80527f290decd9548b62a8d60345a988386fc84ba6bc95484008f6362f93160ef3e563601f830160051c81019160208410610370575b601f0160051c01905b81811061036557506100ae565b5f8155600101610358565b909150819061034f565b90607f169061009c565b5f80fdfe60c0806040526004361015610012575f80fd5b5f905f3560e01c90816301ffc9a714611b5d5750806304a4b0bb146114ea57806306fdde0314611448578063081812fc1461140c578063095ea7b3146113e357806318160ddd146113a657806323b872dd1461138f57806342842e0e146113605780636352211e1461133057806370a0823114611305578063715018a6146112aa5780637bc39341146112825780638da5cb5b1461125a57806395d89b411461117c578063a22cb46514611148578063a574cea414610df4578063b88d4fde14610d87578063c87b56dd14610d2e578063d3b90b3014610c0e578063e3911c7614610ba3578063e985e9c514610b4b578063f2fde38b14610ac2578063f945150a146102225763fc48b65314610126575f80fd5b3461021f5761013436611c45565b600a549092906001600160a01b03163303610210576001600160a01b038216918215610201576001600160a01b039061016e9085906120f1565b168061018857637e27328960e01b85526004849052602485fd5b6001600160a01b0382168082036101e757505082845260096020526040842080546001600160a01b031916831790556001600160a01b03167f9ed91ad1e5bf3e2ab75c4f524a8f952bfa9b29bd56e88c698cdedc215a00eac18480a480f35b6364283d7b60e01b86526004526024849052604452606484fd5b63e6c4247b60e01b8552600485fd5b6325cdf54f60e21b8452600484fd5b80fd5b503461021f5761010036600319011261021f5761023d611c19565b6024356001600160401b038111610abe5761025c903690600401611bc8565b90926044356001600160401b038111610aba5761027d903690600401611bc8565b6064939193356001600160401b038111610ab65761029f903690600401611bc8565b90608052936084356001600160401b038111610ab2576102c3903690600401611bc8565b9060a4356001600160401b038111610aae576102e3903690600401611bc8565b92909360c4356001600160401b038111610aaa57610305903690600401611bc8565b969097610310612096565b6001600160a01b038c1615610a9b576007549b9c8a8e61035c8f61033381612088565b600755602060a0819052604051949061034c9086611cb6565b84526001600160a01b03926120f1565b16610a87578e908e823b61094b575b9150508b52600860a0515260408b20916001600160401b0381116109375761039d816103978554611d28565b85611d60565b8b918c601f83116001146108d1576103cb93909183610646575b50508160011b915f199060031b1c19161790565b90555b8a8952600860a05152600160408a2001916001600160401b0382116108bd576103fb826103978554611d28565b8990601f83116001146108585761042892918b91836106465750508160011b915f199060031b1c19161790565b90555b888752600860a05152600260408820016001600160401b0389116107cf5761045d896104578354611d28565b83611d60565b8789601f81116001146107f05780610489928b916107e3575b508160011b915f199060031b1c19161790565b90555b888752600860a0515260036040882001916001600160401b0382116107cf576104b9826103978554611d28565b8790601f831160011461076a576104e692918991836106465750508160011b915f199060031b1c19161790565b90555b868552600860a0515260046040862001916001600160401b03821161075657610516826103978554611d28565b8590601f83116001146106f15761054392918791836106465750508160011b915f199060031b1c19161790565b90555b848352600860a0515260066040842001916001600160401b0382116106dd57610573826103978554611d28565b8390601f831160011461065157926105c88360409487948a9b977f31e03b10a8d44f1bb3390b7d9992a3ae65e0d960370023dd5bc1b39142c7d2e499926106465750508160011b915f199060031b1c19161790565b90555b858152600860a0515260e43560078383200155858152600960a0515281812060018060a01b0384166001600160601b0360a01b825416179055815192839160a05183528660a05184015286608051858501378287018401526001600160a01b031694601f01601f19168101030190a360405190815260a05190f35b013590505f806103b7565b83855260a051852091601f198416865b8181106106c45750937f31e03b10a8d44f1bb3390b7d9992a3ae65e0d960370023dd5bc1b39142c7d2e49693899a969360019383604098106106ab575b505050811b0190556105cb565b01355f19600384901b60f8161c191690555f808061069e565b83830135855560a0516001909501949283019201610661565b634e487b7160e01b84526041600452602484fd5b83875260a051872091601f198416885b81811061073d5750908460019594939210610724575b505050811b019055610546565b01355f19600384901b60f8161c191690555f8080610717565b83830135855560a0516001909501949283019201610701565b634e487b7160e01b86526041600452602486fd5b83895260a051892091601f1984168a5b8181106107b6575090846001959493921061079d575b505050811b0190556104e9565b01355f19600384901b60f8161c191690555f8080610790565b83830135855560a051600190950194928301920161077a565b634e487b7160e01b88526041600452602488fd5b905060805101355f610476565b5081895260a0518920908a601f1981168b5b81811061083a57501061081f575b5050600189811b01905561048c565b60805101355f1960038c901b60f8161c191690555f80610810565b608051840135855560a051600190950194938401938e935001610802565b838b5260a0518b2091601f1984168c5b8181106108a4575090846001959493921061088b575b505050811b01905561042b565b01355f19600384901b60f8161c191690555f808061087e565b83830135855560a0516001909501949283019201610868565b634e487b7160e01b8a52604160045260248afd5b9192601f19841685845260a0518420935b81811061091e5750908460019594939210610905575b505050811b0190556103ce565b01355f19600384901b60f8161c191690555f80806108f8565b83830135855560a05160019095019492830192016108e2565b634e487b7160e01b8c52604160045260248cfd5b604051928391630a85bd0160e11b83523360048401525f6024840152604483015260806064830152815f8161098760a051966084830190611bf5565b03926001600160a01b03165af15f9181610a3c575b506109ff578e3d156109f8573d6109b281611cd7565b906109c06040519283611cb6565b8152805f3d9160a051013e5b805190816109f257633250574960e11b5f9081526001600160a01b038416600452602490fd5b60a05101fd5b60606109cc565b6001600160e01b03191663757a42ff60e11b01610a1e578d5f8e61036b565b633250574960e11b5f9081526001600160a01b038f16600452602490fd5b90915060a0513d60a05111610a80575b610a568183611cb6565b8160a0519181010312610a7c57516001600160e01b031981168103610a7c57905f61099c565b5f80fd5b503d610a4c565b6339e3563760e11b8c5260048c905260248cfd5b63e6c4247b60e01b8a5260048afd5b8880fd5b8680fd5b8480fd5b8380fd5b5080fd5b8280fd5b503461021f57602036600319011261021f57610adc611c19565b610ae4612096565b6001600160a01b03168015610b3757600680546001600160a01b0319811683179091556001600160a01b03167f8be0079c531659141344cd1fd0a4f28419497f9722a3daafe3b4186f6b6457e05f80a380f35b631e4fbdf760e01b82526004829052602482fd5b503461021f57604036600319011261021f576040610b67611c19565b91610b70611c2f565b9260018060a01b031681526005602052209060018060a01b03165f52602052602060ff60405f2054166040519015158152f35b503461021f57602036600319011261021f57610bbd611c19565b610bc5612096565b600a80546001600160a01b039283166001600160a01b0319821681179092559091167ffb03f814198b7b452e2ae11f7b9489b4307bb1201010d3c88282abab194891288380a380f35b503461021f57602036600319011261021f57610c28611c19565b610c3181612040565b610c3a81612071565b91610c486040519384611cb6565b818352610c5482612071565b602084019290601f19013684376007549185906001600160a01b031660015b848110610cc1575b5050505050604051928392602084019060208552518091526040840192915b818110610ca8575050500390f35b8251845285945060209384019390920191600101610c9a565b808852600260205260408820549496946001600160a01b03168214610cec575b600101959395610c73565b918451811015610d1a5780836020610d0a9360051b88010152612088565b91838303610ce157849650610c7b565b634e487b7160e01b88526032600452602488fd5b34610a7c576020366003190112610a7c57610d4a6004356120bd565b505f604051610d5a602082611cb6565b52610d83604051610d6c602082611cb6565b5f8152604051918291602083526020830190611bf5565b0390f35b34610a7c576080366003190112610a7c57610da0611c19565b610da8611c2f565b90604435606435926001600160401b038411610a7c5736602385011215610a7c57610de0610df2943690602481600401359101611cf2565b92610dec838383611e4f565b33612203565b005b34610a7c576020366003190112610a7c576004355f60e0604051610e1781611c9a565b60608152606060208201526060604082015260608082015260606080820152606060a0820152606060c08201520152805f52600960205260018060a01b0360405f20541615611139575f52600860205260405f20604051610e7781611c9a565b610e8082611daf565b8152610e8e60018301611daf565b9060208101918252610ea260028401611daf565b9260408201938452610eb660038201611daf565b60608301908152610ec960048301611daf565b90608084019182526005830195865495610ee287612071565b96610ef06040519889611cb6565b80885260208801985f5260205f20985f905b8282106110af5760a089018a815260208a8a610fae8b610f9b8c610f888d610f758e610f626007610f3560068c01611daf565b9a60c08d019b8c5201549a60e081019b8c526101006040519d8e92818452519201526101208d0190611bf5565b90518b8203601f190160408d0152611bf5565b9051898203601f190160608b0152611bf5565b9051878203601f19016080890152611bf5565b9051858203601f190160a0870152611bf5565b935193601f198482030160c0850152845180825260208201916020808360051b8301019701925f915b83831061100457878088610ff88c8a51601f198583030160e0860152611bf5565b90516101008301520390f35b90919293976020806110a0600193601f198682030187528c519060c061108f61107d61106161104f61103f875160e0885260e0880190611bf5565b898801518782038b890152611bf5565b60408701518682036040880152611bf5565b6060860151606086015260808601518582036080870152611bf5565b60a085015184820360a0860152611bf5565b9201519060c0818403910152611bf5565b9a019301930191939290610fd7565b600760206001928d6111266006604051926110c984611c7f565b6110d281611daf565b84526110df888201611daf565b868501526110ef60028201611daf565b60408501526003810154606085015261110a60048201611daf565b608085015261111b60058201611daf565b60a085015201611daf565b60c08201528152019b0191019099610f02565b63677510db60e11b5f5260045ffd5b34610a7c576040366003190112610a7c57611161611c19565b5060243580151503610a7c576325cdf54f60e21b5f5260045ffd5b34610a7c575f366003190112610a7c576040515f60015461119c81611d28565b808452906001811690811561123657506001146111d8575b610d83836111c481850382611cb6565b604051918291602083526020830190611bf5565b60015f9081527fb10e2d527612073b26eecdfd717e6a320cf44b4afac2b0732d9fcbe2b7fa0cf6939250905b80821061121c575090915081016020016111c46111b4565b919260018160209254838588010152019101909291611204565b60ff191660208086019190915291151560051b840190910191506111c490506111b4565b34610a7c575f366003190112610a7c576006546040516001600160a01b039091168152602090f35b34610a7c575f366003190112610a7c57600a546040516001600160a01b039091168152602090f35b34610a7c575f366003190112610a7c576112c2612096565b600680546001600160a01b031981169091555f906001600160a01b03167f8be0079c531659141344cd1fd0a4f28419497f9722a3daafe3b4186f6b6457e08280a3005b34610a7c576020366003190112610a7c576020611328611323611c19565b612040565b604051908152f35b34610a7c576020366003190112610a7c57602061134e6004356120bd565b6040516001600160a01b039091168152f35b34610a7c57610df261137136611c45565b9060405192611381602085611cb6565b5f8452610dec838383611e4f565b34610a7c57610df26113a036611c45565b91611e4f565b34610a7c575f366003190112610a7c576007545f1981019081116113cf57602090604051908152f35b634e487b7160e01b5f52601160045260245ffd5b34610a7c576040366003190112610a7c576113fc611c19565b506325cdf54f60e21b5f5260045ffd5b34610a7c576020366003190112610a7c57600435611429816120bd565b505f526004602052602060018060a01b0360405f205416604051908152f35b34610a7c575f366003190112610a7c576040515f5f5461146781611d28565b8084529060018116908115611236575060011461148e57610d83836111c481850382611cb6565b5f8080527f290decd9548b62a8d60345a988386fc84ba6bc95484008f6362f93160ef3e563939250905b8082106114d0575090915081016020016111c46111b4565b9192600181602092548385880101520191019092916114b8565b34610a7c57610100366003190112610a7c576004356024356001600160401b038111610a7c5761151e903690600401611bc8565b6044929192356001600160401b038111610a7c57611540903690600401611bc8565b936064356001600160401b038111610a7c57611560903690600401611bc8565b60a4939193356001600160401b038111610a7c57611582903690600401611bc8565b93909260c4356001600160401b038111610a7c576115a4903690600401611bc8565b96909160e4356001600160401b038111610a7c576115c6903690600401611bc8565b9b90946115d1612096565b5f8c8152600960205260409020546001600160a01b031615611139576040519a6115fa8c611c7f565b369061160592611cf2565b8a52369061161292611cf2565b9360208901948552369061162592611cf2565b936040880194855260608801956084358752369061164292611cf2565b9560808801968752369061165592611cf2565b9760a08701988952369061166892611cf2565b9560c086019687525f52600860205260405f20600501805490680100000000000000008210156119235760018201808255821015611b49575f52600760205f2091020194518051906001600160401b038211611923576116d2826116cc8954611d28565b89611d60565b602090601f8311600114611ae65761170092915f9183611a785750508160011b915f199060031b1c19161790565b85555b51805160018601916001600160401b03821161192357611727826103978554611d28565b602090601f8311600114611a835761175592915f9183611a785750508160011b915f199060031b1c19161790565b90555b51805160028501916001600160401b0382116119235761177c826103978554611d28565b602090601f8311600114611a15576117aa92915f9183611a0a5750508160011b915f199060031b1c19161790565b90555b51600383015551805160048301916001600160401b038211611923576117d7826103978554611d28565b602090601f83116001146119a75761180592915f91836119375750508160011b915f199060031b1c19161790565b90555b6005810192519283516001600160401b038111611923576118338161182d8454611d28565b84611d60565b6020601f821160011461194257908061186492600696975f926119375750508160011b915f199060031b1c19161790565b90555b0190519081516001600160401b038111611923576118898161182d8454611d28565b602092601f82116001146118c7576118b8929382915f926118bc5750508160011b915f199060031b1c19161790565b9055005b0151905084806103b7565b601f19821693835f52805f20915f5b86811061190b57508360019596106118f3575b505050811b019055005b01515f1960f88460031b161c191690558380806118e9565b919260206001819286850151815501940192016118d6565b634e487b7160e01b5f52604160045260245ffd5b0151905087806103b7565b601f19821695835f52815f20965f5b81811061198f5750916006969791846001959410611977575b505050811b019055611867565b01515f1960f88460031b161c1916905586808061196a565b83830151895560019098019760209384019301611951565b90601f19831691845f52815f20925f5b8181106119f257509084600195949392106119da575b505050811b019055611808565b01515f1960f88460031b161c191690558680806119cd565b929360206001819287860151815501950193016119b7565b0151905089806103b7565b90601f19831691845f52815f20925f5b818110611a605750908460019594939210611a48575b505050811b0190556117ad565b01515f1960f88460031b161c19169055888080611a3b565b92936020600181928786015181550195019301611a25565b015190508a806103b7565b90601f19831691845f52815f20925f5b818110611ace5750908460019594939210611ab6575b505050811b019055611758565b01515f1960f88460031b161c19169055898080611aa9565b92936020600181928786015181550195019301611a93565b90601f19831691885f52815f20925f5b818110611b315750908460019594939210611b19575b505050811b018555611703565b01515f1960f88460031b161c19169055898080611b0c565b92936020600181928786015181550195019301611af6565b634e487b7160e01b5f52603260045260245ffd5b34610a7c576020366003190112610a7c576004359063ffffffff60e01b8216809203610a7c576020916380ac58cd60e01b8114908115611bb7575b8115611ba6575b5015158152f35b6301ffc9a760e01b14905083611b9f565b635b5e139f60e01b81149150611b98565b9181601f84011215610a7c578235916001600160401b038311610a7c5760208381860195010111610a7c57565b805180835260209291819084018484015e5f828201840152601f01601f1916010190565b600435906001600160a01b0382168203610a7c57565b602435906001600160a01b0382168203610a7c57565b6060906003190112610a7c576004356001600160a01b0381168103610a7c57906024356001600160a01b0381168103610a7c579060443590565b60e081019081106001600160401b0382111761192357604052565b61010081019081106001600160401b0382111761192357604052565b90601f801991011681019081106001600160401b0382111761192357604052565b6001600160401b03811161192357601f01601f191660200190565b929192611cfe82611cd7565b91611d0c6040519384611cb6565b829481845281830111610a7c578281602093845f960137010152565b90600182811c92168015611d56575b6020831014611d4257565b634e487b7160e01b5f52602260045260245ffd5b91607f1691611d37565b601f8211611d6d57505050565b5f5260205f20906020601f840160051c83019310611da5575b601f0160051c01905b818110611d9a575050565b5f8155600101611d8f565b9091508190611d86565b9060405191825f825492611dc284611d28565b8084529360018116908115611e2d5750600114611de9575b50611de792500383611cb6565b565b90505f9291925260205f20905f915b818310611e11575050906020611de7928201015f611dda565b6020919350806001915483858901015201910190918492611df8565b905060209250611de794915060ff191682840152151560051b8201015f611dda565b6001600160a01b039091169190821561202d575f828152600260205260409020546001600160a01b0316151580612025575b80612010575b612001575f828152600260205260409020546001600160a01b031692829033151580611f6c575b5084611f38575b805f52600360205260405f2060018154019055815f52600260205260405f20816001600160601b0360a01b825416179055847fddf252ad1be2c89b69c2b068fc378daa952ba7f163c4a11628f55a4df523b3ef5f80a46001600160a01b0316808303611f2057505050565b6364283d7b60e01b5f5260045260245260445260645ffd5b815f52600460205260405f206001600160601b0360a01b8154169055845f52600360205260405f205f198154019055611eb5565b90915080611fb0575b15611f825782905f611eae565b8284611f9a57637e27328960e01b5f5260045260245ffd5b63177e802f60e01b5f523360045260245260445ffd5b503384148015611fdf575b80611f7557505f838152600460205260409020546001600160a01b03163314611f75565b505f84815260056020908152604080832033845290915290205460ff16611fbb565b6325cdf54f60e21b5f5260045ffd5b50600a546001600160a01b0316331415611e87565b506001611e81565b633250574960e11b5f525f60045260245ffd5b6001600160a01b0316801561205e575f52600360205260405f205490565b6322718ad960e21b5f525f60045260245ffd5b6001600160401b0381116119235760051b60200190565b5f1981146113cf5760010190565b6006546001600160a01b031633036120aa57565b63118cdaa760e01b5f523360045260245ffd5b5f818152600260205260409020546001600160a01b03169081156120df575090565b637e27328960e01b5f5260045260245ffd5b5f828152600260205260409020549091906001600160a01b03161515806121f1575b806121dc575b612001575f818152600260205260409020546001600160a01b031691826121a8575b6001600160a01b031680612190575b815f52600260205260405f20816001600160601b0360a01b825416179055827fddf252ad1be2c89b69c2b068fc378daa952ba7f163c4a11628f55a4df523b3ef5f80a490565b805f52600360205260405f206001815401905561214a565b815f52600460205260405f206001600160601b0360a01b8154169055825f52600360205260405f205f19815401905561213b565b50600a546001600160a01b0316331415612119565b506001600160a01b0382161515612113565b823b612211575b5050505050565b604051630a85bd0160e11b81526001600160a01b03918216600482015291811660248301526044820193909352608060648201529116916020908290819061225d906084830190611bf5565b03815f865af15f91816122f4575b506122c057503d156122b9573d61228181611cd7565b9061228f6040519283611cb6565b81523d5f602083013e5b805190816122b45782633250574960e11b5f5260045260245ffd5b602001fd5b6060612299565b6001600160e01b03191663757a42ff60e11b016122e257505f8080808061220a565b633250574960e11b5f5260045260245ffd5b9091506020813d602011612331575b8161231060209383611cb6565b81010312610a7c57516001600160e01b031981168103610a7c57905f61226b565b3d915061230356fea26469706673582212209c56da9e379924216e62d68ef32f814baa369182632f746ba1a541b30b527fe064736f6c634300081c0033",
  "linkReferences": {},
  "deployedLinkReferences": {},
  "immutableReferences": {},
  "inputSourceName": "project/contracts/LandOwnershipNFT.sol",
  "buildInfoId": "solc-0_8_28-aa42b513112b3ac845e5998207f396f18f7c55b3"
}