{
  "_format": "hh3-artifact-1",
  "contractName": "LandOwnershipNFT",
  "sourceName": "contracts/LandOwnershipNFT.sol",
  "abi": [
    {
      "inputs": [],
      "stateMutability": "nonpayable",
      "type": "constructor"
    },
    {
      "inputs": [],
      "name": "DuplicateMetadata",
      "type": "error"
    },
    {
      "inputs": [
        {
          "internalType": "address",
          "name": "sender",
          "type": "address"
        },
        {
          "internalType": "uint256",
          "name": "tokenId",
          "type": "uint256"
        },
        {
          "internalType": "address",
          "name": "owner",
          "type": "address"
        }
      ],
      "name": "ERC721IncorrectOwner",
      "type": "error"
    },
    {
      "inputs": [
        {
          "internalType": "address",
          "name": "operator",
          "type": "address"
        },
        {
          "internalType": "uint256",
          "name": "tokenId",
          "type": "uint256"
        }
      ],
      "name": "ERC721InsufficientApproval",
      "type": "error"
    },
    {
      "inputs": [
        {
          "internalType": "address",
          "name": "approver",
          "type": "address"
        }
      ],
      "name": "ERC721InvalidApprover",
      "type": "error"
    },
    {
      "inputs": [
        {
          "internalType": "address",
          "name": "operator",
          "type": "address"
        }
      ],
      "name": "ERC721InvalidOperator",
      "type": "error"
    },
    {
      "inputs": [
        {
          "internalType": "address",
          "name": "owner",
          "type": "address"
        }
      ],
      "name": "ERC721InvalidOwner",
      "type": "error"
    },
    {
      "inputs": [
        {
          "internalType": "address",
          "name": "receiver",
          "type": "address"
        }
      ],
      "name": "ERC721InvalidReceiver",
      "type": "error"
    },
    {
      "inputs": [
        {
          "internalType": "address",
          "name": "sender",
          "type": "address"
        }
      ],
      "name": "ERC721InvalidSender",
      "type": "error"
    },
    {
      "inputs": [
        {
          "internalType": "uint256",
          "name": "tokenId",
          "type": "uint256"
        }
      ],
      "name": "ERC721NonexistentToken",
      "type": "error"
    },
    {
      "inputs": [],
      "name": "InvalidAddress",
      "type": "error"
    },
    {
      "inputs": [
        {
          "internalType": "address",
          "name": "owner",
          "type": "address"
        }
      ],
      "name": "OwnableInvalidOwner",
      "type": "error"
    },
    {
      "inputs": [
        {
          "internalType": "address",
          "name": "account",
          "type": "address"
        }
      ],
      "name": "OwnableUnauthorizedAccount",
      "type": "error"
    },
    {
      "inputs": [],
      "name": "TokenDoesNotExist",
      "type": "error"
    },
    {
      "inputs": [],
      "name": "UnauthorizedTransfer",
      "type": "error"
    },
    {
      "anonymous": false,
      "inputs": [
        {
          "indexed": true,
          "internalType": "address",
          "name": "owner",
          "type": "address"
        },
        {
          "indexed": true,
          "internalType": "address",
          "name": "approved",
          "type": "address"
        },
        {
          "indexed": true,
          "internalType": "uint256",
          "name": "tokenId",
          "type": "uint256"
        }
      ],
      "name": "Approval",
      "type": "event"
    },
    {
      "anonymous": false,
      "inputs": [
        {
          "indexed": true,
          "internalType": "address",
          "name": "owner",
          "type": "address"
        },
        {
          "indexed": true,
          "internalType": "address",
          "name": "operator",
          "type": "address"
        },
        {
          "indexed": false,
          "internalType": "bool",
          "name": "approved",
          "type": "bool"
        }
      ],
      "name": "ApprovalForAll",
      "type": "event"
    },
    {
      "anonymous": false,
      "inputs": [
        {
          "indexed": true,
          "internalType": "address",
          "name": "from",
          "type": "address"
        },
        {
          "indexed": true,
          "internalType": "address",
          "name": "to",
          "type": "address"
        },
        {
          "indexed": true,
          "internalType": "uint256",
          "name": "tokenId",
          "type": "uint256"
        }
      ],
      "name": "AuthorizedTransfer",
      "type": "event"
    },
    {
      "anonymous": false,
      "inputs": [
        {
          "indexed": true,
          "internalType": "address",
          "name": "to",
          "type": "address"
        },
        {
          "indexed": true,
          "internalType": "uint256",
          "name": "tokenId",
          "type": "uint256"
        },
        {
          "indexed": false,
          "internalType": "string",
          "name": "metadataCid",
          "type": "string"
        }
      ],
      "name": "LandOwnershipMinted",
      "type": "event"
    },
    {
      "anonymous": false,
      "inputs": [
        {
          "indexed": true,
          "internalType": "address",
          "name": "previousOwner",
          "type": "address"
        },
        {
          "indexed": true,
          "internalType": "address",
          "name": "newOwner",
          "type": "address"
        }
      ],
      "name": "OwnershipTransferred",
      "type": "event"
    },
    {
      "anonymous": false,
      "inputs": [
        {
          "indexed": true,
          "internalType": "address",
          "name": "from",
          "type": "address"
        },
        {
          "indexed": true,
          "internalType": "address",
          "name": "to",
          "type": "address"
        },
        {
          "indexed": true,
          "internalType": "uint256",
          "name": "tokenId",
          "type": "uint256"
        }
      ],
      "name": "Transfer",
      "type": "event"
    },
    {
      "anonymous": false,
      "inputs": [
        {
          "indexed": true,
          "internalType": "address",
          "name": "oldContract",
          "type": "address"
        },
        {
          "indexed": true,
          "internalType": "address",
          "name": "newContract",
          "type": "address"
        }
      ],
      "name": "TransferContractUpdated",
      "type": "event"
    },
    {
      "inputs": [
        {
          "internalType": "uint256",
          "name": "tokenId",
          "type": "uint256"
        },
        {
          "internalType": "string",
          "name": "cid",
          "type": "string"
        },
        {
          "internalType": "string",
          "name": "filename",
          "type": "string"
        },
        {
          "internalType": "string",
          "name": "mime",
          "type": "string"
        },
        {
          "internalType": "uint256",
          "name": "size",
          "type": "uint256"
        },
        {
          "internalType": "string",
          "name": "iv",
          "type": "string"
        },
        {
          "internalType": "string",
          "name": "ciphertextHash",
          "type": "string"
        },
        {
          "internalType": "string",
          "name": "tag",
          "type": "string"
        }
      ],
      "name": "addFileToToken",
      "outputs": [],
      "stateMutability": "nonpayable",
      "type": "function"
    },
    {
      "inputs": [
        {
          "internalType": "address",
          "name": "",
          "type": "address"
        },
        {
          "internalType": "uint256",
          "name": "",
          "type": "uint256"
        }
      ],
      "name": "approve",
      "outputs": [],
      "stateMutability": "nonpayable",
      "type": "function"
    },
    {
      "inputs": [
        {
          "internalType": "address",
          "name": "from",
          "type": "address"
        },
        {
          "internalType": "address",
          "name": "to",
          "type": "address"
        },
        {
          "internalType": "uint256",
          "name": "tokenId",
          "type": "uint256"
        }
      ],
      "name": "authorizedTransfer",
      "outputs": [],
      "stateMutability": "nonpayable",
      "type": "function"
    },
    {
      "inputs": [
        {
          "internalType": "address",
          "name": "owner",
          "type": "address"
        }
      ],
      "name": "balanceOf",
      "outputs": [
        {
          "internalType": "uint256",
          "name": "",
          "type": "uint256"
        }
      ],
      "stateMutability": "view",
      "type": "function"
    },
    {
      "inputs": [
        {
          "internalType": "uint256",
          "name": "tokenId",
          "type": "uint256"
        }
      ],
      "name": "getApproved",
      "outputs": [
        {
          "internalType": "address",
          "name": "",
          "type": "address"
        }
      ],
      "stateMutability": "view",
      "type": "function"
    },
    {
      "inputs": [
        {
          "internalType": "uint256",
          "name": "tokenId",
          "type": "uint256"
        }
      ],
      "name": "getMetadata",
      "outputs": [
        {
          "components": [
            {
              "internalType": "string",
              "name": "requestType",
              "type": "string"
            },
            {
              "internalType": "string",
              "name": "minimalPublicLabel",
              "type": "string"
            },
            {
              "internalType": "string",
              "name": "metadataCid",
              "type": "string"
            },
            {
              "internalType": "string",
              "name": "metadataHash",
              "type": "string"
            },
            {
              "internalType": "string",
              "name": "uploaderSignature",
              "type": "string"
            },
            {
              "components": [
                {
                  "internalType": "string",
                  "name": "cid",
                  "type": "string"
                },
                {
                  "internalType": "string",
                  "name": "filename",
                  "type": "string"
                },
                {
                  "internalType": "string",
                  "name": "mime",
                  "type": "string"
                },
                {
                  "internalType": "uint256",
                  "name": "size",
                  "type": "uint256"
                },
                {
                  "internalType": "string",
                  "name": "iv",
                  "type": "string"
                },
                {
                  "internalType": "string",
                  "name": "ciphertextHash",
                  "type": "string"
                },
                {
                  "internalType": "string",
                  "name": "tag",
                  "type": "string"
                }
              ],
              "internalType": "struct LandOwnershipNFT.DocMeta[]",
              "name": "files",
              "type": "tuple[]"
            },
            {
              "internalType": "string",
              "name": "consentTextVersion",
              "type": "string"
            },
            {
              "internalType": "uint256",
              "name": "consentTimestamp",
              "type": "uint256"
            }
          ],
          "internalType": "struct LandOwnershipNFT.LandOwnershipMetadata",
          "name": "",
          "type": "tuple"
        }
      ],
      "stateMutability": "view",
      "type": "function"
    },
    {
      "inputs": [
        {
          "internalType": "address",
          "name": "wallet",
          "type": "address"
        }
      ],
      "name": "getTokensByWallet",
      "outputs": [
        {
          "internalType": "uint256[]",
          "name": "",
          "type": "uint256[]"
        }
      ],
      "stateMutability": "view",
      "type": "function"
    },
    {
      "inputs": [
        {
          "internalType": "address",
          "name": "owner",
          "type": "address"
        },
        {
          "internalType": "address",
          "name": "operator",
          "type": "address"
        }
      ],
      "name": "isApprovedForAll",
      "outputs": [
        {
          "internalType": "bool",
          "name": "",
          "type": "bool"
        }
      ],
      "stateMutability": "view",
      "type": "function"
    },
    {
      "inputs": [
        {
          "internalType": "string",
          "name": "metadataHash",
          "type": "string"
        }
      ],
      "name": "isMetadataUnique",
      "outputs": [
        {
          "internalType": "bool",
          "name": "",
          "type": "bool"
        }
      ],
      "stateMutability": "view",
      "type": "function"
    },
    {
      "inputs": [
        {
          "internalType": "address",
          "name": "to",
          "type": "address"
        },
        {
          "internalType": "string",
          "name": "requestType",
          "type": "string"
        },
        {
          "internalType": "string",
          "name": "minimalPublicLabel",
          "type": "string"
        },
        {
          "internalType": "string",
          "name": "metadataCid",
          "type": "string"
        },
        {
          "internalType": "string",
          "name": "metadataHash",
          "type": "string"
        },
        {
          "internalType": "string",
          "name": "uploaderSignature",
          "type": "string"
        },
        {
          "internalType": "string",
          "name": "consentTextVersion",
          "type": "string"
        },
        {
          "internalType": "uint256",
          "name": "consentTimestamp",
          "type": "uint256"
        }
      ],
      "name": "mintLandOwnership",
      "outputs": [
        {
          "internalType": "uint256",
          "name": "",
          "type": "uint256"
        }
      ],
      "stateMutability": "nonpayable",
      "type": "function"
    },
    {
      "inputs": [],
      "name": "name",
      "outputs": [
        {
          "internalType": "string",
          "name": "",
          "type": "string"
        }
      ],
      "stateMutability": "view",
      "type": "function"
    },
    {
      "inputs": [],
      "name": "owner",
      "outputs": [
        {
          "internalType": "address",
          "name": "",
          "type": "address"
        }
      ],
      "stateMutability": "view",
      "type": "function"
    },
    {
      "inputs": [
        {
          "internalType": "uint256",
          "name": "tokenId",
          "type": "uint256"
        }
      ],
      "name": "ownerOf",
      "outputs": [
        {
          "internalType": "address",
          "name": "",
          "type": "address"
        }
      ],
      "stateMutability": "view",
      "type": "function"
    },
    {
      "inputs": [],
      "name": "renounceOwnership",
      "outputs": [],
      "stateMutability": "nonpayable",
      "type": "function"
    },
    {
      "inputs": [
        {
          "internalType": "address",
          "name": "from",
          "type": "address"
        },
        {
          "internalType": "address",
          "name": "to",
          "type": "address"
        },
        {
          "internalType": "uint256",
          "name": "tokenId",
          "type": "uint256"
        }
      ],
      "name": "safeTransferFrom",
      "outputs": [],
      "stateMutability": "nonpayable",
      "type": "function"
    },
    {
      "inputs": [
        {
          "internalType": "address",
          "name": "from",
          "type": "address"
        },
        {
          "internalType": "address",
          "name": "to",
          "type": "address"
        },
        {
          "internalType": "uint256",
          "name": "tokenId",
          "type": "uint256"
        },
        {
          "internalType": "bytes",
          "name": "data",
          "type": "bytes"
        }
      ],
      "name": "safeTransferFrom",
      "outputs": [],
      "stateMutability": "nonpayable",
      "type": "function"
    },
    {
      "inputs": [
        {
          "internalType": "address",
          "name": "",
          "type": "address"
        },
        {
          "internalType": "bool",
          "name": "",
          "type": "bool"
        }
      ],
      "name": "setApprovalForAll",
      "outputs": [],
      "stateMutability": "nonpayable",
      "type": "function"
    },
    {
      "inputs": [
        {
          "internalType": "address",
          "name": "_transferContract",
          "type": "address"
        }
      ],
      "name": "setTransferContract",
      "outputs": [],
      "stateMutability": "nonpayable",
      "type": "function"
    },
    {
      "inputs": [
        {
          "internalType": "bytes4",
          "name": "interfaceId",
          "type": "bytes4"
        }
      ],
      "name": "supportsInterface",
      "outputs": [
        {
          "internalType": "bool",
          "name": "",
          "type": "bool"
        }
      ],
      "stateMutability": "view",
      "type": "function"
    },
    {
      "inputs": [],
      "name": "symbol",
      "outputs": [
        {
          "internalType": "string",
          "name": "",
          "type": "string"
        }
      ],
      "stateMutability": "view",
      "type": "function"
    },
    {
      "inputs": [
        {
          "internalType": "uint256",
          "name": "tokenId",
          "type": "uint256"
        }
      ],
      "name": "tokenURI",
      "outputs": [
        {
          "internalType": "string",
          "name": "",
          "type": "string"
        }
      ],
      "stateMutability": "view",
      "type": "function"
    },
    {
      "inputs": [],
      "name": "totalSupply",
      "outputs": [
        {
          "internalType": "uint256",
          "name": "",
          "type": "uint256"
        }
      ],
      "stateMutability": "view",
      "type": "function"
    },
    {
      "inputs": [],
      "name": "transferContract",
      "outputs": [
        {
          "internalType": "address",
          "name": "",
          "type": "address"
        }
      ],
      "stateMutability": "view",
      "type": "function"
    },
    {
      "inputs": [
        {
          "internalType": "address",
          "name": "from",
          "type": "address"
        },
        {
          "internalType": "address",
          "name": "to",
          "type": "address"
        },
        {
          "internalType": "uint256",
          "name": "tokenId",
          "type": "uint256"
        }
      ],
      "name": "transferFrom",
      "outputs": [],
      "stateMutability": "nonpayable",
      "type": "function"
    },
    {
      "inputs": [
        {
          "internalType": "address",
          "name": "newOwner",
          "type": "address"
        }
      ],
      "name": "transferOwnership",
      "outputs": [],
      "stateMutability": "nonpayable",
      "type": "function"
    }
  ],
  "bytecode": "0x60806040523461038457604080519081016001600160401b0381118282101761029a576040908152601482527f4c616e64204f776e6572736869702050726f6f66000000000000000000000000602083015280519081016001600160401b0381118282101761029a5760405260048152631310539160e21b602082015281516001600160401b03811161029a575f54600181811c9116801561037a575b602082101461027c57601f8111610318575b50602092601f82116001146102b957928192935f926102ae575b50508160011b915f199060031b1c1916175f555b80516001600160401b03811161029a57600154600181811c91168015610290575b602082101461027c57601f8111610219575b50602091601f82116001146101b9579181925f926101ae575b50508160011b915f199060031b1c1916176001555b331561019b5760068054336001600160a01b03198216811790925560405191906001600160a01b03167f8be0079c531659141344cd1fd0a4f28419497f9722a3daafe3b4186f6b6457e05f80a3600160075561241090816103898239f35b631e4fbdf760e01b5f525f60045260245ffd5b015190505f80610128565b601f1982169260015f52805f20915f5b858110610201575083600195106101e9575b505050811b0160015561013d565b01515f1960f88460031b161c191690555f80806101db565b919260206001819286850151815501940192016101c9565b60015f527fb10e2d527612073b26eecdfd717e6a320cf44b4afac2b0732d9fcbe2b7fa0cf6601f830160051c81019160208410610272575b601f0160051c01905b818110610267575061010f565b5f815560010161025a565b9091508190610251565b634e487b7160e01b5f52602260045260245ffd5b90607f16906100fd565b634e487b7160e01b5f52604160045260245ffd5b015190505f806100c8565b601f198216935f8052805f20915f5b86811061030057508360019596106102e8575b505050811b015f556100dc565b01515f1960f88460031b161c191690555f80806102db565b919260206001819286850151815501940192016102c8565b5f80527f290decd9548b62a8d60345a988386fc84ba6bc95484008f6362f93160ef3e563601f830160051c81019160208410610370575b601f0160051c01905b81811061036557506100ae565b5f8155600101610358565b909150819061034f565b90607f169061009c565b5f80fdfe60c0806040526004361015610012575f80fd5b5f905f3560e01c90816301ffc9a714611bfe5750806304a4b0bb1461158b57806306fdde03146114e9578063081812fc146114ad578063095ea7b31461148457806318160ddd1461144757806323b872dd1461143057806342842e0e146114015780636352211e146113d15780636fe9be201461137c57806370a0823114611351578063715018a6146112f65780637bc39341146112ce5780638da5cb5b146112a657806395d89b41146111c8578063a22cb46514611194578063a574cea414610e40578063b88d4fde14610dd3578063c87b56dd14610d7a578063d3b90b3014610c5a578063e3911c7614610bef578063e985e9c514610b97578063f2fde38b14610b0e578063f945150a1461022d5763fc48b65314610131575f80fd5b3461022a5761013f36611ce6565b600a549092906001600160a01b0316330361021b576001600160a01b03821691821561020c576001600160a01b0390610179908590612192565b168061019357637e27328960e01b85526004849052602485fd5b6001600160a01b0382168082036101f257505082845260096020526040842080546001600160a01b031916831790556001600160a01b03167f9ed91ad1e5bf3e2ab75c4f524a8f952bfa9b29bd56e88c698cdedc215a00eac18480a480f35b6364283d7b60e01b86526004526024849052604452606484fd5b63e6c4247b60e01b8552600485fd5b6325cdf54f60e21b8452600484fd5b80fd5b503461022a5761010036600319011261022a57610248611cba565b6024356001600160401b038111610b0a57610267903690600401611c69565b90926044356001600160401b038111610b0657610288903690600401611c69565b6064356001600160401b038111610b02576102a7903690600401611c69565b90608052936084356001600160401b038111610afe576102cb903690600401611c69565b92909360a4356001600160401b038111610afa576102ed903690600401611c69565b909160c4356001600160401b038111610af65761030e903690600401611c69565b949095610319612137565b6001600160a01b038c1615610ae75760ff604051898b82376020818b8101600b8152030190205416610ad8576007549b9c8a8e6103828f61035981612129565b600755602060a081905260405194906103729086611d57565b84526001600160a01b0392612192565b16610ac4578e908e823b610988575b9150508b52600860a0515260408b20916001600160401b038111610974576103c3816103bd8554611dc9565b85611e01565b8b918c601f831160011461090e576103f19390918361068b575b50508160011b915f199060031b1c19161790565b90555b8a8952600860a05152600160408a2001916001600160401b0382116108fa57610421826103bd8554611dc9565b8990601f83116001146108955761044e92918b918361068b5750508160011b915f199060031b1c19161790565b90555b888752600860a05152600260408820016001600160401b03891161079d576104838961047d8354611dc9565b83611e01565b8789601f811160011461082d57806104af928b91610820575b508160011b915f199060031b1c19161790565b90555b888752600860a05152600360408820016001600160401b03861161079d576104de8661047d8354611dc9565b8786601f81116001146107bc5780610509928b916107b157508160011b915f199060031b1c19161790565b90555b888752600860a0515260046040882001916001600160401b03821161079d57610539826103bd8554611dc9565b8790601f831160011461073857610566929189918361068b5750508160011b915f199060031b1c19161790565b90555b868552600860a0515260066040862001916001600160401b03821161072457610596826103bd8554611dc9565b8590601f831160011461069657926105ed838a9b9794604097948a977f31e03b10a8d44f1bb3390b7d9992a3ae65e0d960370023dd5bc1b39142c7d2e49b9261068b5750508160011b915f199060031b1c19161790565b90555b878352600860a0515260e43560078585200155878352600960a0515283832060018060a01b0386166001600160601b0360a01b8254161790558084519283378101600b81528160a0519103019020600160ff19825416179055815192839160a05183528660a05184015286608051858501378287018401526001600160a01b031694601f01601f19168101030190a360405190815260a05190f35b013590505f806103dd565b83875260a051872091601f198416885b81811061070b575093604096937f31e03b10a8d44f1bb3390b7d9992a3ae65e0d960370023dd5bc1b39142c7d2e4999693600193838e9f9b98106106f2575b505050811b0190556105f0565b01355f19600384901b60f8161c191690555f80806106e5565b83830135855560a05160019095019492830192016106a6565b634e487b7160e01b86526041600452602486fd5b83895260a051892091601f1984168a5b818110610784575090846001959493921061076b575b505050811b019055610569565b01355f19600384901b60f8161c191690555f808061075e565b83830135855560a0516001909501949283019201610748565b634e487b7160e01b88526041600452602488fd5b90508901355f61049c565b5081895260a05189209087601f1981168b5b8181106108045750106107eb575b5050600186811b01905561050c565b8801355f19600389901b60f8161c191690555f806107dc565b8b840135855560a051600190950194938401938b9350016107ce565b905060805101355f61049c565b5081895260a0518920908a601f1981168b5b81811061087757501061085c575b5050600189811b0190556104b2565b60805101355f1960038c901b60f8161c191690555f8061084d565b608051840135855560a051600190950194938401938e93500161083f565b838b5260a0518b2091601f1984168c5b8181106108e157509084600195949392106108c8575b505050811b019055610451565b01355f19600384901b60f8161c191690555f80806108bb565b83830135855560a05160019095019492830192016108a5565b634e487b7160e01b8a52604160045260248afd5b9192601f19841685845260a0518420935b81811061095b5750908460019594939210610942575b505050811b0190556103f4565b01355f19600384901b60f8161c191690555f8080610935565b83830135855560a051600190950194928301920161091f565b634e487b7160e01b8c52604160045260248cfd5b604051928391630a85bd0160e11b83523360048401525f6024840152604483015260806064830152815f816109c460a051966084830190611c96565b03926001600160a01b03165af15f9181610a79575b50610a3c578e3d15610a35573d6109ef81611d78565b906109fd6040519283611d57565b8152805f3d9160a051013e5b80519081610a2f57633250574960e11b5f9081526001600160a01b038416600452602490fd5b60a05101fd5b6060610a09565b6001600160e01b03191663757a42ff60e11b01610a5b578d5f8e610391565b633250574960e11b5f9081526001600160a01b038f16600452602490fd5b90915060a0513d60a05111610abd575b610a938183611d57565b8160a0519181010312610ab957516001600160e01b031981168103610ab957905f6109d9565b5f80fd5b503d610a89565b6339e3563760e11b8c5260048c905260248cfd5b636548e7d760e01b8a5260048afd5b63e6c4247b60e01b8a5260048afd5b8880fd5b8680fd5b8480fd5b8380fd5b5080fd5b8280fd5b503461022a57602036600319011261022a57610b28611cba565b610b30612137565b6001600160a01b03168015610b8357600680546001600160a01b0319811683179091556001600160a01b03167f8be0079c531659141344cd1fd0a4f28419497f9722a3daafe3b4186f6b6457e05f80a380f35b631e4fbdf760e01b82526004829052602482fd5b503461022a57604036600319011261022a576040610bb3611cba565b91610bbc611cd0565b9260018060a01b031681526005602052209060018060a01b03165f52602052602060ff60405f2054166040519015158152f35b503461022a57602036600319011261022a57610c09611cba565b610c11612137565b600a80546001600160a01b039283166001600160a01b0319821681179092559091167ffb03f814198b7b452e2ae11f7b9489b4307bb1201010d3c88282abab194891288380a380f35b503461022a57602036600319011261022a57610c74611cba565b610c7d816120e1565b610c8681612112565b91610c946040519384611d57565b818352610ca082612112565b602084019290601f19013684376007549185906001600160a01b031660015b848110610d0d575b5050505050604051928392602084019060208552518091526040840192915b818110610cf4575050500390f35b8251845285945060209384019390920191600101610ce6565b808852600260205260408820549496946001600160a01b03168214610d38575b600101959395610cbf565b918451811015610d665780836020610d569360051b88010152612129565b91838303610d2d57849650610cc7565b634e487b7160e01b88526032600452602488fd5b34610ab9576020366003190112610ab957610d9660043561215e565b505f604051610da6602082611d57565b52610dcf604051610db8602082611d57565b5f8152604051918291602083526020830190611c96565b0390f35b34610ab9576080366003190112610ab957610dec611cba565b610df4611cd0565b90604435606435926001600160401b038411610ab95736602385011215610ab957610e2c610e3e943690602481600401359101611d93565b92610e38838383611ef0565b336122a4565b005b34610ab9576020366003190112610ab9576004355f60e0604051610e6381611d3b565b60608152606060208201526060604082015260608082015260606080820152606060a0820152606060c08201520152805f52600960205260018060a01b0360405f20541615611185575f52600860205260405f20604051610ec381611d3b565b610ecc82611e50565b8152610eda60018301611e50565b9060208101918252610eee60028401611e50565b9260408201938452610f0260038201611e50565b60608301908152610f1560048301611e50565b90608084019182526005830195865495610f2e87612112565b96610f3c6040519889611d57565b80885260208801985f5260205f20985f905b8282106110fb5760a089018a815260208a8a610ffa8b610fe78c610fd48d610fc18e610fae6007610f8160068c01611e50565b9a60c08d019b8c5201549a60e081019b8c526101006040519d8e92818452519201526101208d0190611c96565b90518b8203601f190160408d0152611c96565b9051898203601f190160608b0152611c96565b9051878203601f19016080890152611c96565b9051858203601f190160a0870152611c96565b935193601f198482030160c0850152845180825260208201916020808360051b8301019701925f915b838310611050578780886110448c8a51601f198583030160e0860152611c96565b90516101008301520390f35b90919293976020806110ec600193601f198682030187528c519060c06110db6110c96110ad61109b61108b875160e0885260e0880190611c96565b898801518782038b890152611c96565b60408701518682036040880152611c96565b6060860151606086015260808601518582036080870152611c96565b60a085015184820360a0860152611c96565b9201519060c0818403910152611c96565b9a019301930191939290611023565b600760206001928d61117260066040519261111584611d20565b61111e81611e50565b845261112b888201611e50565b8685015261113b60028201611e50565b60408501526003810154606085015261115660048201611e50565b608085015261116760058201611e50565b60a085015201611e50565b60c08201528152019b0191019099610f4e565b63677510db60e11b5f5260045ffd5b34610ab9576040366003190112610ab9576111ad611cba565b5060243580151503610ab9576325cdf54f60e21b5f5260045ffd5b34610ab9575f366003190112610ab9576040515f6001546111e881611dc9565b80845290600181169081156112825750600114611224575b610dcf8361121081850382611d57565b604051918291602083526020830190611c96565b60015f9081527fb10e2d527612073b26eecdfd717e6a320cf44b4afac2b0732d9fcbe2b7fa0cf6939250905b80821061126857509091508101602001611210611200565b919260018160209254838588010152019101909291611250565b60ff191660208086019190915291151560051b840190910191506112109050611200565b34610ab9575f366003190112610ab9576006546040516001600160a01b039091168152602090f35b34610ab9575f366003190112610ab957600a546040516001600160a01b039091168152602090f35b34610ab9575f366003190112610ab95761130e612137565b600680546001600160a01b031981169091555f906001600160a01b03167f8be0079c531659141344cd1fd0a4f28419497f9722a3daafe3b4186f6b6457e08280a3005b34610ab9576020366003190112610ab957602061137461136f611cba565b6120e1565b604051908152f35b34610ab9576020366003190112610ab9576004356001600160401b038111610ab95760ff60206113b181933690600401611c69565b91908260405193849283378101600b815203019020541615604051908152f35b34610ab9576020366003190112610ab95760206113ef60043561215e565b6040516001600160a01b039091168152f35b34610ab957610e3e61141236611ce6565b9060405192611422602085611d57565b5f8452610e38838383611ef0565b34610ab957610e3e61144136611ce6565b91611ef0565b34610ab9575f366003190112610ab9576007545f19810190811161147057602090604051908152f35b634e487b7160e01b5f52601160045260245ffd5b34610ab9576040366003190112610ab95761149d611cba565b506325cdf54f60e21b5f5260045ffd5b34610ab9576020366003190112610ab9576004356114ca8161215e565b505f526004602052602060018060a01b0360405f205416604051908152f35b34610ab9575f366003190112610ab9576040515f5f5461150881611dc9565b8084529060018116908115611282575060011461152f57610dcf8361121081850382611d57565b5f8080527f290decd9548b62a8d60345a988386fc84ba6bc95484008f6362f93160ef3e563939250905b80821061157157509091508101602001611210611200565b919260018160209254838588010152019101909291611559565b34610ab957610100366003190112610ab9576004356024356001600160401b038111610ab9576115bf903690600401611c69565b6044929192356001600160401b038111610ab9576115e1903690600401611c69565b936064356001600160401b038111610ab957611601903690600401611c69565b60a4939193356001600160401b038111610ab957611623903690600401611c69565b93909260c4356001600160401b038111610ab957611645903690600401611c69565b96909160e4356001600160401b038111610ab957611667903690600401611c69565b9b9094611672612137565b5f8c8152600960205260409020546001600160a01b031615611185576040519a61169b8c611d20565b36906116a692611d93565b8a5236906116b392611d93565b936020890194855236906116c692611d93565b93604088019485526060880195608435875236906116e392611d93565b956080880196875236906116f692611d93565b9760a08701988952369061170992611d93565b9560c086019687525f52600860205260405f20600501805490680100000000000000008210156119c45760018201808255821015611bea575f52600760205f2091020194518051906001600160401b0382116119c4576117738261176d8954611dc9565b89611e01565b602090601f8311600114611b87576117a192915f9183611b195750508160011b915f199060031b1c19161790565b85555b51805160018601916001600160401b0382116119c4576117c8826103bd8554611dc9565b602090601f8311600114611b24576117f692915f9183611b195750508160011b915f199060031b1c19161790565b90555b51805160028501916001600160401b0382116119c45761181d826103bd8554611dc9565b602090601f8311600114611ab65761184b92915f9183611aab5750508160011b915f199060031b1c19161790565b90555b51600383015551805160048301916001600160401b0382116119c457611878826103bd8554611dc9565b602090601f8311600114611a48576118a692915f91836119d85750508160011b915f199060031b1c19161790565b90555b6005810192519283516001600160401b0381116119c4576118d4816118ce8454611dc9565b84611e01565b6020601f82116001146119e357908061190592600696975f926119d85750508160011b915f199060031b1c19161790565b90555b0190519081516001600160401b0381116119c45761192a816118ce8454611dc9565b602092601f821160011461196857611959929382915f9261195d5750508160011b915f199060031b1c19161790565b9055005b0151905084806103dd565b601f19821693835f52805f20915f5b8681106119ac5750836001959610611994575b505050811b019055005b01515f1960f88460031b161c1916905583808061198a565b91926020600181928685015181550194019201611977565b634e487b7160e01b5f52604160045260245ffd5b0151905087806103dd565b601f19821695835f52815f20965f5b818110611a305750916006969791846001959410611a18575b505050811b019055611908565b01515f1960f88460031b161c19169055868080611a0b565b838301518955600190980197602093840193016119f2565b90601f19831691845f52815f20925f5b818110611a935750908460019594939210611a7b575b505050811b0190556118a9565b01515f1960f88460031b161c19169055868080611a6e565b92936020600181928786015181550195019301611a58565b0151905089806103dd565b90601f19831691845f52815f20925f5b818110611b015750908460019594939210611ae9575b505050811b01905561184e565b01515f1960f88460031b161c19169055888080611adc565b92936020600181928786015181550195019301611ac6565b015190508a806103dd565b90601f19831691845f52815f20925f5b818110611b6f5750908460019594939210611b57575b505050811b0190556117f9565b01515f1960f88460031b161c19169055898080611b4a565b92936020600181928786015181550195019301611b34565b90601f19831691885f52815f20925f5b818110611bd25750908460019594939210611bba575b505050811b0185556117a4565b01515f1960f88460031b161c19169055898080611bad565b92936020600181928786015181550195019301611b97565b634e487b7160e01b5f52603260045260245ffd5b34610ab9576020366003190112610ab9576004359063ffffffff60e01b8216809203610ab9576020916380ac58cd60e01b8114908115611c58575b8115611c47575b5015158152f35b6301ffc9a760e01b14905083611c40565b635b5e139f60e01b81149150611c39565b9181601f84011215610ab9578235916001600160401b038311610ab95760208381860195010111610ab957565b805180835260209291819084018484015e5f828201840152601f01601f1916010190565b600435906001600160a01b0382168203610ab957565b602435906001600160a01b0382168203610ab957565b6060906003190112610ab9576004356001600160a01b0381168103610ab957906024356001600160a01b0381168103610ab9579060443590565b60e081019081106001600160401b038211176119c457604052565b61010081019081106001600160401b038211176119c457604052565b90601f801991011681019081106001600160401b038211176119c457604052565b6001600160401b0381116119c457601f01601f191660200190565b929192611d9f82611d78565b91611dad6040519384611d57565b829481845281830111610ab9578281602093845f960137010152565b90600182811c92168015611df7575b6020831014611de357565b634e487b7160e01b5f52602260045260245ffd5b91607f1691611dd8565b601f8211611e0e57505050565b5f5260205f20906020601f840160051c83019310611e46575b601f0160051c01905b818110611e3b575050565b5f8155600101611e30565b9091508190611e27565b9060405191825f825492611e6384611dc9565b8084529360018116908115611ece5750600114611e8a575b50611e8892500383611d57565b565b90505f9291925260205f20905f915b818310611eb2575050906020611e88928201015f611e7b565b6020919350806001915483858901015201910190918492611e99565b905060209250611e8894915060ff191682840152151560051b8201015f611e7b565b6001600160a01b03909116919082156120ce575f828152600260205260409020546001600160a01b03161515806120c6575b806120b1575b6120a2575f828152600260205260409020546001600160a01b03169282903315158061200d575b5084611fd9575b805f52600360205260405f2060018154019055815f52600260205260405f20816001600160601b0360a01b825416179055847fddf252ad1be2c89b69c2b068fc378daa952ba7f163c4a11628f55a4df523b3ef5f80a46001600160a01b0316808303611fc157505050565b6364283d7b60e01b5f5260045260245260445260645ffd5b815f52600460205260405f206001600160601b0360a01b8154169055845f52600360205260405f205f198154019055611f56565b90915080612051575b156120235782905f611f4f565b828461203b57637e27328960e01b5f5260045260245ffd5b63177e802f60e01b5f523360045260245260445ffd5b503384148015612080575b8061201657505f838152600460205260409020546001600160a01b03163314612016565b505f84815260056020908152604080832033845290915290205460ff1661205c565b6325cdf54f60e21b5f5260045ffd5b50600a546001600160a01b0316331415611f28565b506001611f22565b633250574960e11b5f525f60045260245ffd5b6001600160a01b031680156120ff575f52600360205260405f205490565b6322718ad960e21b5f525f60045260245ffd5b6001600160401b0381116119c45760051b60200190565b5f1981146114705760010190565b6006546001600160a01b0316330361214b57565b63118cdaa760e01b5f523360045260245ffd5b5f818152600260205260409020546001600160a01b0316908115612180575090565b637e27328960e01b5f5260045260245ffd5b5f828152600260205260409020549091906001600160a01b0316151580612292575b8061227d575b6120a2575f818152600260205260409020546001600160a01b03169182612249575b6001600160a01b031680612231575b815f52600260205260405f20816001600160601b0360a01b825416179055827fddf252ad1be2c89b69c2b068fc378daa952ba7f163c4a11628f55a4df523b3ef5f80a490565b805f52600360205260405f20600181540190556121eb565b815f52600460205260405f206001600160601b0360a01b8154169055825f52600360205260405f205f1981540190556121dc565b50600a546001600160a01b03163314156121ba565b506001600160a01b03821615156121b4565b823b6122b2575b5050505050565b604051630a85bd0160e11b81526001600160a01b0391821660048201529181166024830152604482019390935260806064820152911691602090829081906122fe906084830190611c96565b03815f865af15f9181612395575b5061236157503d1561235a573d61232281611d78565b906123306040519283611d57565b81523d5f602083013e5b805190816123555782633250574960e11b5f5260045260245ffd5b602001fd5b606061233a565b6001600160e01b03191663757a42ff60e11b0161238357505f808080806122ab565b633250574960e11b5f5260045260245ffd5b9091506020813d6020116123d2575b816123b160209383611d57565b81010312610ab957516001600160e01b031981168103610ab957905f61230c565b3d91506123a456fea2646970667358221220955f7a7d6c994abd7004e02658b1ef44c4bd79599b487e30840b3c979aa3e45264736f6c634300081c0033",
  "linkReferences": {},
  "deployedLinkReferences": {},
  "immutableReferences": {},
  "inputSourceName": "project/contracts/LandOwnershipNFT.sol",
  "buildInfoId": "solc-0_8_28-3bad1eaa12e2cb8a9eb14985d7e64a0f31db0f88"
}