{
  "_format": "hh3-artifact-1",
  "contractName": "NationalIdNFT",
  "sourceName": "contracts/NationalIdNFT.sol",
  "abi": [
    {
      "inputs": [],
      "stateMutability": "nonpayable",
      "type": "constructor"
    },
    {
      "inputs": [
        {
          "internalType": "address",
          "name": "sender",
          "type": "address"
        },
        {
          "internalType": "uint256",
          "name": "tokenId",
          "type": "uint256"
        },
        {
          "internalType": "address",
          "name": "owner",
          "type": "address"
        }
      ],
      "name": "ERC721IncorrectOwner",
      "type": "error"
    },
    {
      "inputs": [
        {
          "internalType": "address",
          "name": "operator",
          "type": "address"
        },
        {
          "internalType": "uint256",
          "name": "tokenId",
          "type": "uint256"
        }
      ],
      "name": "ERC721InsufficientApproval",
      "type": "error"
    },
    {
      "inputs": [
        {
          "internalType": "address",
          "name": "approver",
          "type": "address"
        }
      ],
      "name": "ERC721InvalidApprover",
      "type": "error"
    },
    {
      "inputs": [
        {
          "internalType": "address",
          "name": "operator",
          "type": "address"
        }
      ],
      "name": "ERC721InvalidOperator",
      "type": "error"
    },
    {
      "inputs": [
        {
          "internalType": "address",
          "name": "owner",
          "type": "address"
        }
      ],
      "name": "ERC721InvalidOwner",
      "type": "error"
    },
    {
      "inputs": [
        {
          "internalType": "address",
          "name": "receiver",
          "type": "address"
        }
      ],
      "name": "ERC721InvalidReceiver",
      "type": "error"
    },
    {
      "inputs": [
        {
          "internalType": "address",
          "name": "sender",
          "type": "address"
        }
      ],
      "name": "ERC721InvalidSender",
      "type": "error"
    },
    {
      "inputs": [
        {
          "internalType": "uint256",
          "name": "tokenId",
          "type": "uint256"
        }
      ],
      "name": "ERC721NonexistentToken",
      "type": "error"
    },
    {
      "inputs": [],
      "name": "InvalidAddress",
      "type": "error"
    },
    {
      "inputs": [
        {
          "internalType": "address",
          "name": "owner",
          "type": "address"
        }
      ],
      "name": "OwnableInvalidOwner",
      "type": "error"
    },
    {
      "inputs": [
        {
          "internalType": "address",
          "name": "account",
          "type": "address"
        }
      ],
      "name": "OwnableUnauthorizedAccount",
      "type": "error"
    },
    {
      "inputs": [],
      "name": "TokenDoesNotExist",
      "type": "error"
    },
    {
      "inputs": [],
      "name": "TransferNotAllowed",
      "type": "error"
    },
    {
      "inputs": [],
      "name": "WalletAlreadyHasNationalId",
      "type": "error"
    },
    {
      "anonymous": false,
      "inputs": [
        {
          "indexed": true,
          "internalType": "address",
          "name": "owner",
          "type": "address"
        },
        {
          "indexed": true,
          "internalType": "address",
          "name": "approved",
          "type": "address"
        },
        {
          "indexed": true,
          "internalType": "uint256",
          "name": "tokenId",
          "type": "uint256"
        }
      ],
      "name": "Approval",
      "type": "event"
    },
    {
      "anonymous": false,
      "inputs": [
        {
          "indexed": true,
          "internalType": "address",
          "name": "owner",
          "type": "address"
        },
        {
          "indexed": true,
          "internalType": "address",
          "name": "operator",
          "type": "address"
        },
        {
          "indexed": false,
          "internalType": "bool",
          "name": "approved",
          "type": "bool"
        }
      ],
      "name": "ApprovalForAll",
      "type": "event"
    },
    {
      "anonymous": false,
      "inputs": [
        {
          "indexed": true,
          "internalType": "address",
          "name": "to",
          "type": "address"
        },
        {
          "indexed": true,
          "internalType": "uint256",
          "name": "tokenId",
          "type": "uint256"
        },
        {
          "indexed": false,
          "internalType": "string",
          "name": "metadataCid",
          "type": "string"
        }
      ],
      "name": "NationalIdMinted",
      "type": "event"
    },
    {
      "anonymous": false,
      "inputs": [
        {
          "indexed": true,
          "internalType": "address",
          "name": "previousOwner",
          "type": "address"
        },
        {
          "indexed": true,
          "internalType": "address",
          "name": "newOwner",
          "type": "address"
        }
      ],
      "name": "OwnershipTransferred",
      "type": "event"
    },
    {
      "anonymous": false,
      "inputs": [
        {
          "indexed": true,
          "internalType": "address",
          "name": "from",
          "type": "address"
        },
        {
          "indexed": true,
          "internalType": "address",
          "name": "to",
          "type": "address"
        },
        {
          "indexed": true,
          "internalType": "uint256",
          "name": "tokenId",
          "type": "uint256"
        }
      ],
      "name": "Transfer",
      "type": "event"
    },
    {
      "inputs": [
        {
          "internalType": "uint256",
          "name": "tokenId",
          "type": "uint256"
        },
        {
          "internalType": "string",
          "name": "cid",
          "type": "string"
        },
        {
          "internalType": "string",
          "name": "filename",
          "type": "string"
        },
        {
          "internalType": "string",
          "name": "mime",
          "type": "string"
        },
        {
          "internalType": "uint256",
          "name": "size",
          "type": "uint256"
        },
        {
          "internalType": "string",
          "name": "iv",
          "type": "string"
        },
        {
          "internalType": "string",
          "name": "ciphertextHash",
          "type": "string"
        },
        {
          "internalType": "string",
          "name": "tag",
          "type": "string"
        }
      ],
      "name": "addFileToToken",
      "outputs": [],
      "stateMutability": "nonpayable",
      "type": "function"
    },
    {
      "inputs": [
        {
          "internalType": "address",
          "name": "",
          "type": "address"
        },
        {
          "internalType": "uint256",
          "name": "",
          "type": "uint256"
        }
      ],
      "name": "approve",
      "outputs": [],
      "stateMutability": "nonpayable",
      "type": "function"
    },
    {
      "inputs": [
        {
          "internalType": "address",
          "name": "owner",
          "type": "address"
        }
      ],
      "name": "balanceOf",
      "outputs": [
        {
          "internalType": "uint256",
          "name": "",
          "type": "uint256"
        }
      ],
      "stateMutability": "view",
      "type": "function"
    },
    {
      "inputs": [
        {
          "internalType": "uint256",
          "name": "tokenId",
          "type": "uint256"
        }
      ],
      "name": "getApproved",
      "outputs": [
        {
          "internalType": "address",
          "name": "",
          "type": "address"
        }
      ],
      "stateMutability": "view",
      "type": "function"
    },
    {
      "inputs": [
        {
          "internalType": "uint256",
          "name": "tokenId",
          "type": "uint256"
        }
      ],
      "name": "getMetadata",
      "outputs": [
        {
          "components": [
            {
              "internalType": "string",
              "name": "requestType",
              "type": "string"
            },
            {
              "internalType": "string",
              "name": "minimalPublicLabel",
              "type": "string"
            },
            {
              "internalType": "string",
              "name": "metadataCid",
              "type": "string"
            },
            {
              "internalType": "string",
              "name": "metadataHash",
              "type": "string"
            },
            {
              "internalType": "string",
              "name": "uploaderSignature",
              "type": "string"
            },
            {
              "components": [
                {
                  "internalType": "string",
                  "name": "cid",
                  "type": "string"
                },
                {
                  "internalType": "string",
                  "name": "filename",
                  "type": "string"
                },
                {
                  "internalType": "string",
                  "name": "mime",
                  "type": "string"
                },
                {
                  "internalType": "uint256",
                  "name": "size",
                  "type": "uint256"
                },
                {
                  "internalType": "string",
                  "name": "iv",
                  "type": "string"
                },
                {
                  "internalType": "string",
                  "name": "ciphertextHash",
                  "type": "string"
                },
                {
                  "internalType": "string",
                  "name": "tag",
                  "type": "string"
                }
              ],
              "internalType": "struct NationalIdNFT.DocMeta[]",
              "name": "files",
              "type": "tuple[]"
            },
            {
              "internalType": "string",
              "name": "consentTextVersion",
              "type": "string"
            },
            {
              "internalType": "uint256",
              "name": "consentTimestamp",
              "type": "uint256"
            }
          ],
          "internalType": "struct NationalIdNFT.NationalIdMetadata",
          "name": "",
          "type": "tuple"
        }
      ],
      "stateMutability": "view",
      "type": "function"
    },
    {
      "inputs": [
        {
          "internalType": "address",
          "name": "wallet",
          "type": "address"
        }
      ],
      "name": "getTokenIdByWallet",
      "outputs": [
        {
          "internalType": "uint256",
          "name": "",
          "type": "uint256"
        }
      ],
      "stateMutability": "view",
      "type": "function"
    },
    {
      "inputs": [
        {
          "internalType": "address",
          "name": "wallet",
          "type": "address"
        }
      ],
      "name": "hasNationalId",
      "outputs": [
        {
          "internalType": "bool",
          "name": "",
          "type": "bool"
        }
      ],
      "stateMutability": "view",
      "type": "function"
    },
    {
      "inputs": [
        {
          "internalType": "address",
          "name": "owner",
          "type": "address"
        },
        {
          "internalType": "address",
          "name": "operator",
          "type": "address"
        }
      ],
      "name": "isApprovedForAll",
      "outputs": [
        {
          "internalType": "bool",
          "name": "",
          "type": "bool"
        }
      ],
      "stateMutability": "view",
      "type": "function"
    },
    {
      "inputs": [
        {
          "internalType": "address",
          "name": "to",
          "type": "address"
        },
        {
          "internalType": "string",
          "name": "requestType",
          "type": "string"
        },
        {
          "internalType": "string",
          "name": "minimalPublicLabel",
          "type": "string"
        },
        {
          "internalType": "string",
          "name": "metadataCid",
          "type": "string"
        },
        {
          "internalType": "string",
          "name": "metadataHash",
          "type": "string"
        },
        {
          "internalType": "string",
          "name": "uploaderSignature",
          "type": "string"
        },
        {
          "internalType": "string",
          "name": "consentTextVersion",
          "type": "string"
        },
        {
          "internalType": "uint256",
          "name": "consentTimestamp",
          "type": "uint256"
        }
      ],
      "name": "mintNationalId",
      "outputs": [
        {
          "internalType": "uint256",
          "name": "",
          "type": "uint256"
        }
      ],
      "stateMutability": "nonpayable",
      "type": "function"
    },
    {
      "inputs": [],
      "name": "name",
      "outputs": [
        {
          "internalType": "string",
          "name": "",
          "type": "string"
        }
      ],
      "stateMutability": "view",
      "type": "function"
    },
    {
      "inputs": [],
      "name": "owner",
      "outputs": [
        {
          "internalType": "address",
          "name": "",
          "type": "address"
        }
      ],
      "stateMutability": "view",
      "type": "function"
    },
    {
      "inputs": [
        {
          "internalType": "uint256",
          "name": "tokenId",
          "type": "uint256"
        }
      ],
      "name": "ownerOf",
      "outputs": [
        {
          "internalType": "address",
          "name": "",
          "type": "address"
        }
      ],
      "stateMutability": "view",
      "type": "function"
    },
    {
      "inputs": [],
      "name": "renounceOwnership",
      "outputs": [],
      "stateMutability": "nonpayable",
      "type": "function"
    },
    {
      "inputs": [
        {
          "internalType": "address",
          "name": "from",
          "type": "address"
        },
        {
          "internalType": "address",
          "name": "to",
          "type": "address"
        },
        {
          "internalType": "uint256",
          "name": "tokenId",
          "type": "uint256"
        }
      ],
      "name": "safeTransferFrom",
      "outputs": [],
      "stateMutability": "nonpayable",
      "type": "function"
    },
    {
      "inputs": [
        {
          "internalType": "address",
          "name": "from",
          "type": "address"
        },
        {
          "internalType": "address",
          "name": "to",
          "type": "address"
        },
        {
          "internalType": "uint256",
          "name": "tokenId",
          "type": "uint256"
        },
        {
          "internalType": "bytes",
          "name": "data",
          "type": "bytes"
        }
      ],
      "name": "safeTransferFrom",
      "outputs": [],
      "stateMutability": "nonpayable",
      "type": "function"
    },
    {
      "inputs": [
        {
          "internalType": "address",
          "name": "",
          "type": "address"
        },
        {
          "internalType": "bool",
          "name": "",
          "type": "bool"
        }
      ],
      "name": "setApprovalForAll",
      "outputs": [],
      "stateMutability": "nonpayable",
      "type": "function"
    },
    {
      "inputs": [
        {
          "internalType": "bytes4",
          "name": "interfaceId",
          "type": "bytes4"
        }
      ],
      "name": "supportsInterface",
      "outputs": [
        {
          "internalType": "bool",
          "name": "",
          "type": "bool"
        }
      ],
      "stateMutability": "view",
      "type": "function"
    },
    {
      "inputs": [],
      "name": "symbol",
      "outputs": [
        {
          "internalType": "string",
          "name": "",
          "type": "string"
        }
      ],
      "stateMutability": "view",
      "type": "function"
    },
    {
      "inputs": [
        {
          "internalType": "uint256",
          "name": "tokenId",
          "type": "uint256"
        }
      ],
      "name": "tokenURI",
      "outputs": [
        {
          "internalType": "string",
          "name": "",
          "type": "string"
        }
      ],
      "stateMutability": "view",
      "type": "function"
    },
    {
      "inputs": [],
      "name": "totalSupply",
      "outputs": [
        {
          "internalType": "uint256",
          "name": "",
          "type": "uint256"
        }
      ],
      "stateMutability": "view",
      "type": "function"
    },
    {
      "inputs": [
        {
          "internalType": "address",
          "name": "from",
          "type": "address"
        },
        {
          "internalType": "address",
          "name": "to",
          "type": "address"
        },
        {
          "internalType": "uint256",
          "name": "tokenId",
          "type": "uint256"
        }
      ],
      "name": "transferFrom",
      "outputs": [],
      "stateMutability": "nonpayable",
      "type": "function"
    },
    {
      "inputs": [
        {
          "internalType": "address",
          "name": "newOwner",
          "type": "address"
        }
      ],
      "name": "transferOwnership",
      "outputs": [],
      "stateMutability": "nonpayable",
      "type": "function"
    }
  ],
  "bytecode": "0x60806040523461037957604080519081016001600160401b0381118282101761028f57604090815260118252702730ba34b7b730b61024a210283937b7b360791b602083015280519081016001600160401b0381118282101761028f576040526005815264139055125160da1b602082015281516001600160401b03811161028f575f54600181811c9116801561036f575b602082101461027157601f811161030d575b50602092601f82116001146102ae57928192935f926102a3575b50508160011b915f199060031b1c1916175f555b80516001600160401b03811161028f57600154600181811c91168015610285575b602082101461027157601f811161020e575b50602091601f82116001146101ae579181925f926101a3575b50508160011b915f199060031b1c1916176001555b33156101905760068054336001600160a01b03198216811790925560405191906001600160a01b03167f8be0079c531659141344cd1fd0a4f28419497f9722a3daafe3b4186f6b6457e05f80a360016007556120a2908161037e8239f35b631e4fbdf760e01b5f525f60045260245ffd5b015190505f8061011d565b601f1982169260015f52805f20915f5b8581106101f6575083600195106101de575b505050811b01600155610132565b01515f1960f88460031b161c191690555f80806101d0565b919260206001819286850151815501940192016101be565b60015f527fb10e2d527612073b26eecdfd717e6a320cf44b4afac2b0732d9fcbe2b7fa0cf6601f830160051c81019160208410610267575b601f0160051c01905b81811061025c5750610104565b5f815560010161024f565b9091508190610246565b634e487b7160e01b5f52602260045260245ffd5b90607f16906100f2565b634e487b7160e01b5f52604160045260245ffd5b015190505f806100bd565b601f198216935f8052805f20915f5b8681106102f557508360019596106102dd575b505050811b015f556100d1565b01515f1960f88460031b161c191690555f80806102d0565b919260206001819286850151815501940192016102bd565b5f80527f290decd9548b62a8d60345a988386fc84ba6bc95484008f6362f93160ef3e563601f830160051c81019160208410610365575b601f0160051c01905b81811061035a57506100a3565b5f815560010161034d565b9091508190610344565b90607f1690610091565b5f80fdfe6080806040526004361015610012575f80fd5b5f905f3560e01c90816301ffc9a714611a185750806304a4b0bb146113b957806306fdde0314611317578063081812fc146112db578063095ea7b3146112b257806318160ddd146112895780631d2cbedc1461125157806323b872dd1461123a5780632b0579d21461120057806342842e0e146111d15780636352211e146111a157806370a0823114611150578063715018a6146110f5578063888e1ac91461076a5780638da5cb5b1461074257806395d89b4114610664578063a22cb46514610630578063a574cea4146102bd578063b88d4fde14610250578063c87b56dd146101f3578063e985e9c51461019b5763f2fde38b14610110575f80fd5b3461019857602036600319011261019857610129611ad4565b610131611edb565b6001600160a01b0316801561018457600680546001600160a01b0319811683179091556001600160a01b03167f8be0079c531659141344cd1fd0a4f28419497f9722a3daafe3b4186f6b6457e05f80a380f35b631e4fbdf760e01b82526004829052602482fd5b80fd5b50346101985760403660031901126101985760406101b7611ad4565b916101c0611aea565b9260018060a01b031681526005602052209060018060a01b03165f52602052602060ff60405f2054166040519015158152f35b3461024c57602036600319011261024c5761020f600435611f02565b505f60405161021f602082611b71565b52610248604051610231602082611b71565b5f8152604051918291602083526020830190611ab0565b0390f35b5f80fd5b3461024c57608036600319011261024c57610269611ad4565b610271611aea565b90604435606435926001600160401b03841161024c573660238501121561024c576102a96102bb943690602481600401359101611bad565b926102b5838383611d0a565b33611f36565b005b3461024c57602036600319011261024c576004355f60e06040516102e081611b55565b60608152606060208201526060604082015260608082015260606080820152606060a0820152606060c08201520152805f52600a60205260018060a01b0360405f20541615610621575f52600860205260405f2060405161034081611b55565b61034982611c6a565b815261035760018301611c6a565b906020810191825261036b60028401611c6a565b926040820193845261037f60038201611c6a565b6060830190815261039260048301611c6a565b906080840191825260058301958654956001600160401b03871161060d57604051966103c460208260051b0189611b71565b80885260208801985f5260205f20985f905b8282106105835760a089018a815260208a8a6104828b61046f8c61045c8d6104498e610436600761040960068c01611c6a565b9a60c08d019b8c5201549a60e081019b8c526101006040519d8e92818452519201526101208d0190611ab0565b90518b8203601f190160408d0152611ab0565b9051898203601f190160608b0152611ab0565b9051878203601f19016080890152611ab0565b9051858203601f190160a0870152611ab0565b935193601f198482030160c0850152845180825260208201916020808360051b8301019701925f915b8383106104d8578780886104cc8c8a51601f198583030160e0860152611ab0565b90516101008301520390f35b9091929397602080610574600193601f198682030187528c519060c0610563610551610535610523610513875160e0885260e0880190611ab0565b898801518782038b890152611ab0565b60408701518682036040880152611ab0565b6060860151606086015260808601518582036080870152611ab0565b60a085015184820360a0860152611ab0565b9201519060c0818403910152611ab0565b9a0193019301919392906104ab565b600760206001928d6105fa60066040519261059d84611b3a565b6105a681611c6a565b84526105b3888201611c6a565b868501526105c360028201611c6a565b6040850152600381015460608501526105de60048201611c6a565b60808501526105ef60058201611c6a565b60a085015201611c6a565b60c08201528152019b01910190996103d6565b634e487b7160e01b5f52604160045260245ffd5b63677510db60e11b5f5260045ffd5b3461024c57604036600319011261024c57610649611ad4565b506024358015150361024c57638cd22d1960e01b5f5260045ffd5b3461024c575f36600319011261024c576040515f60015461068481611be3565b808452906001811690811561071e57506001146106c0575b610248836106ac81850382611b71565b604051918291602083526020830190611ab0565b60015f9081527fb10e2d527612073b26eecdfd717e6a320cf44b4afac2b0732d9fcbe2b7fa0cf6939250905b808210610704575090915081016020016106ac61069c565b9192600181602092548385880101520191019092916106ec565b60ff191660208086019190915291151560051b840190910191506106ac905061069c565b3461024c575f36600319011261024c576006546040516001600160a01b039091168152602090f35b3461024c5761010036600319011261024c57610784611ad4565b6024356001600160401b03811161024c576107a3903690600401611a83565b6044929192356001600160401b03811161024c576107c5903690600401611a83565b90926064356001600160401b03811161024c576107e6903690600401611a83565b9290946084356001600160401b03811161024c57610808903690600401611a83565b9060a4356001600160401b03811161024c57610828903690600401611a83565b91909260c4356001600160401b03811161024c5761084a903690600401611a83565b959096610855611edb565b6001600160a01b038916156110e6576001600160a01b0389165f908152600960205260409020546110d7576007549c5f198e146110c3578d9b60018d0160075560209e8f604051916108a78284611b71565b5f808452908152600290915260409020546001600160a01b03161515806110b1575b6110a2578f8c8f805f526002835260018060a01b0360405f2054169160028315159485611072575b6001600160a01b038316611050575b5f8481529190526040812080546001600160a01b0319166001600160a01b0393909316928317905583907fddf252ad1be2c89b69c2b068fc378daa952ba7f163c4a11628f55a4df523b3ef9080a45061103d578b3b610efb575b5060088f8e5f525260405f20916001600160401b03821161060d578f9061098b836109858654611be3565b86611c1b565b5f91601f8411600114610e9657506109ba92915f9183610e8b575b50508160011b915f199060031b1c19161790565b90555b8a5f5260088d52600160405f2001916001600160401b03821161060d578d906109ea836109858654611be3565b5f91601f8411600114610e265750610a1892915f9183610e1b5750508160011b915f199060031b1c19161790565b90555b885f5260088b52600260405f20016001600160401b03891161060d57610a4b89610a458354611be3565b83611c1b565b885f8d601f8311600114610db257509080610a7a925f91610da7575b508160011b915f199060031b1c19161790565b90555b885f5260088b52600360405f2001916001600160401b03821161060d57610aae82610aa88554611be3565b85611c1b565b5f908c601f8411600114610d425750610add92915f9183610c3e5750508160011b915f199060031b1c19161790565b90555b865f5260088952600460405f2001916001600160401b03821161060d57610b0b82610aa88554611be3565b5f90601f8311600114610cdf57610b3892915f9183610cd45750508160011b915f199060031b1c19161790565b90555b845f5260088752600660405f2001916001600160401b03821161060d57610b6682610aa88554611be3565b5f90601f8311600114610c4957938593610bbc846040958a9b957f544b13e8345f58407295c2c47e21ed56e6c0f52509138fa4e3cc067bd17aaa69995f92610c3e5750508160011b915f199060031b1c19161790565b90555b5f87815260088a5283812060e4356007909101556001600160a01b03821680825260098b52848220899055888252600a8b529084902080546001600160a01b03191690911790558251898152808a01859052938492838501375f8287018401526001600160a01b031694601f01601f19168101030190a3604051908152f35b013590508d806109a6565b601f19831691845f52895f20925f5b8b828210610cbe57505084899a947f544b13e8345f58407295c2c47e21ed56e6c0f52509138fa4e3cc067bd17aaa6998948a989460409860019510610ca5575b505050811b019055610bbf565b01355f19600384901b60f8161c191690558c8080610c98565b6001849682939587013581550195019201610c58565b013590508b806109a6565b601f19831691845f528b5f20925f5b8d828210610d2c575050908460019594939210610d13575b505050811b019055610b3b565b01355f19600384901b60f8161c191690558a8080610d06565b6001849682939587013581550195019201610cee565b91601f198416855f52835f20935f905b828210610d8f575050908460019594939210610d76575b505050811b019055610ae0565b01355f19600384901b60f8161c191690558c8080610d69565b80600185978294968801358155019601930190610d52565b90508d01358f610a67565b918d601f19821690855f52845f20945f915b838310610dfc5750505010610de3575b5050600189811b019055610a7d565b8c01355f1960038c901b60f8161c191690558c80610dd4565b8193945085968293966001920135815501950193018f918e9392610dc4565b013590508f806109a6565b91601f198416855f52835f20935f905b828210610e73575050908460019594939210610e5a575b505050811b019055610a1b565b01355f19600384901b60f8161c191690558e8080610e4d565b80600185978294968801358155019601930190610e36565b013590505f806109a6565b91601f198416855f52835f20935f905b828210610ee3575050908460019594939210610eca575b505050811b0190556109bd565b01355f19600384901b60f8161c191690555f8080610ebd565b80600185978294968801358155019601930190610ea6565b8b9f9e9d9c9b8f610f40928f9282935f604051809781958294630a85bd0160e11b84523360048501528460248501526044840152608060648401526084830190611ab0565b03926001600160a01b03165af19182915f93610ffc575b5050610fb8578f8f3d15610fb0573d90610f7082611b92565b91610f7e6040519384611b71565b82523d5f8284013e5b81519182610fad57633250574960e11b5f9081526001600160a01b038516600452602490fd5b01fd5b606090610f87565b9d9e9c9d9b9c9a9b6001600160e01b03191663757a42ff60e11b01610fde57600861095a565b633250574960e11b5f9081526001600160a01b038c16600452602490fd5b9080929350813d8311611036575b6110148183611b71565b8101031261024c57516001600160e01b03198116810361024c57908f80610f57565b503d61100a565b6339e3563760e11b5f525f60045260245ffd5b6001600160a01b0383165f908152600382526040902080546001019055610900565b5f84815260048252604080822080546001600160a01b031916905586825260038352902080545f190190556108f1565b638cd22d1960e01b5f5260045ffd5b506001600160a01b038c1615156108c9565b634e487b7160e01b5f52601160045260245ffd5b63d05e28e560e01b5f5260045ffd5b63e6c4247b60e01b5f5260045ffd5b3461024c575f36600319011261024c5761110d611edb565b600680546001600160a01b031981169091555f906001600160a01b03167f8be0079c531659141344cd1fd0a4f28419497f9722a3daafe3b4186f6b6457e08280a3005b3461024c57602036600319011261024c576001600160a01b03611171611ad4565b16801561118e575f526003602052602060405f2054604051908152f35b6322718ad960e21b5f525f60045260245ffd5b3461024c57602036600319011261024c5760206111bf600435611f02565b6040516001600160a01b039091168152f35b3461024c576102bb6111e236611b00565b90604051926111f2602085611b71565b5f84526102b5838383611d0a565b3461024c57602036600319011261024c576001600160a01b03611221611ad4565b165f526009602052602060405f20541515604051908152f35b3461024c576102bb61124b36611b00565b91611d0a565b3461024c57602036600319011261024c576001600160a01b03611272611ad4565b165f526009602052602060405f2054604051908152f35b3461024c575f36600319011261024c576007545f1981019081116110c357602090604051908152f35b3461024c57604036600319011261024c576112cb611ad4565b50638cd22d1960e01b5f5260045ffd5b3461024c57602036600319011261024c576004356112f881611f02565b505f526004602052602060018060a01b0360405f205416604051908152f35b3461024c575f36600319011261024c576040515f5f5461133681611be3565b808452906001811690811561071e575060011461135d57610248836106ac81850382611b71565b5f8080527f290decd9548b62a8d60345a988386fc84ba6bc95484008f6362f93160ef3e563939250905b80821061139f575090915081016020016106ac61069c565b919260018160209254838588010152019101909291611387565b3461024c5761010036600319011261024c576004356024356001600160401b03811161024c576113ed903690600401611a83565b6044929192356001600160401b03811161024c5761140f903690600401611a83565b936064356001600160401b03811161024c5761142f903690600401611a83565b60a4939193356001600160401b03811161024c57611451903690600401611a83565b93909260c4356001600160401b03811161024c57611473903690600401611a83565b96909160e4356001600160401b03811161024c57611495903690600401611a83565b9b90946114a0611edb565b5f8c8152600a60205260409020546001600160a01b031615610621576040519a6114c98c611b3a565b36906114d492611bad565b8a5236906114e192611bad565b936020890194855236906114f492611bad565b936040880194855260608801956084358752369061151192611bad565b9560808801968752369061152492611bad565b9760a08701988952369061153792611bad565b9560c086019687525f52600860205260405f206005018054906801000000000000000082101561060d5760018201808255821015611a04575f52600760205f2091020194518051906001600160401b03821161060d576115a18261159b8954611be3565b89611c1b565b602090601f83116001146119a1576115cf92915f91836119335750508160011b915f199060031b1c19161790565b85555b51805160018601916001600160401b03821161060d576115f682610aa88554611be3565b602090601f831160011461193e5761162492915f91836119335750508160011b915f199060031b1c19161790565b90555b51805160028501916001600160401b03821161060d5761164b82610aa88554611be3565b602090601f83116001146118d05761167992915f91836118c55750508160011b915f199060031b1c19161790565b90555b51600383015551805160048301916001600160401b03821161060d576116a682610aa88554611be3565b602090601f8311600114611862576116d492915f91836117f25750508160011b915f199060031b1c19161790565b90555b6005810192519283516001600160401b03811161060d57611702816116fc8454611be3565b84611c1b565b6020601f82116001146117fd57908061173392600696975f926117f25750508160011b915f199060031b1c19161790565b90555b0190519081516001600160401b03811161060d57611758816116fc8454611be3565b602092601f821160011461179657611787929382915f9261178b5750508160011b915f199060031b1c19161790565b9055005b0151905084806109a6565b601f19821693835f52805f20915f5b8681106117da57508360019596106117c2575b505050811b019055005b01515f1960f88460031b161c191690558380806117b8565b919260206001819286850151815501940192016117a5565b0151905087806109a6565b601f19821695835f52815f20965f5b81811061184a5750916006969791846001959410611832575b505050811b019055611736565b01515f1960f88460031b161c19169055868080611825565b8383015189556001909801976020938401930161180c565b90601f19831691845f52815f20925f5b8181106118ad5750908460019594939210611895575b505050811b0190556116d7565b01515f1960f88460031b161c19169055868080611888565b92936020600181928786015181550195019301611872565b0151905089806109a6565b90601f19831691845f52815f20925f5b81811061191b5750908460019594939210611903575b505050811b01905561167c565b01515f1960f88460031b161c191690558880806118f6565b929360206001819287860151815501950193016118e0565b015190508a806109a6565b90601f19831691845f52815f20925f5b8181106119895750908460019594939210611971575b505050811b019055611627565b01515f1960f88460031b161c19169055898080611964565b9293602060018192878601518155019501930161194e565b90601f19831691885f52815f20925f5b8181106119ec57509084600195949392106119d4575b505050811b0185556115d2565b01515f1960f88460031b161c191690558980806119c7565b929360206001819287860151815501950193016119b1565b634e487b7160e01b5f52603260045260245ffd5b3461024c57602036600319011261024c576004359063ffffffff60e01b821680920361024c576020916380ac58cd60e01b8114908115611a72575b8115611a61575b5015158152f35b6301ffc9a760e01b14905083611a5a565b635b5e139f60e01b81149150611a53565b9181601f8401121561024c578235916001600160401b03831161024c576020838186019501011161024c57565b805180835260209291819084018484015e5f828201840152601f01601f1916010190565b600435906001600160a01b038216820361024c57565b602435906001600160a01b038216820361024c57565b606090600319011261024c576004356001600160a01b038116810361024c57906024356001600160a01b038116810361024c579060443590565b60e081019081106001600160401b0382111761060d57604052565b61010081019081106001600160401b0382111761060d57604052565b90601f801991011681019081106001600160401b0382111761060d57604052565b6001600160401b03811161060d57601f01601f191660200190565b929192611bb982611b92565b91611bc76040519384611b71565b82948184528183011161024c578281602093845f960137010152565b90600182811c92168015611c11575b6020831014611bfd57565b634e487b7160e01b5f52602260045260245ffd5b91607f1691611bf2565b601f8211611c2857505050565b5f5260205f20906020601f840160051c83019310611c60575b601f0160051c01905b818110611c55575050565b5f8155600101611c4a565b9091508190611c41565b9060405191825f825492611c7d84611be3565b8084529360018116908115611ce85750600114611ca4575b50611ca292500383611b71565b565b90505f9291925260205f20905f915b818310611ccc575050906020611ca2928201015f611c95565b6020919350806001915483858901015201910190918492611cb3565b905060209250611ca294915060ff191682840152151560051b8201015f611c95565b6001600160a01b0390911691908215611ec8575f828152600260205260409020546001600160a01b0316151580611ec0575b6110a2575f828152600260205260409020546001600160a01b031692829033151580611e2b575b5084611df2575b805f52600360205260405f2060018154019055815f52600260205260405f20816bffffffffffffffffffffffff60a01b825416179055847fddf252ad1be2c89b69c2b068fc378daa952ba7f163c4a11628f55a4df523b3ef5f80a46001600160a01b0316808303611dda57505050565b6364283d7b60e01b5f5260045260245260445260645ffd5b815f52600460205260405f206bffffffffffffffffffffffff60a01b8154169055845f52600360205260405f205f198154019055611d6a565b90915080611e6f575b15611e415782905f611d63565b8284611e5957637e27328960e01b5f5260045260245ffd5b63177e802f60e01b5f523360045260245260445ffd5b503384148015611e9e575b80611e3457505f838152600460205260409020546001600160a01b03163314611e34565b505f84815260056020908152604080832033845290915290205460ff16611e7a565b506001611d3c565b633250574960e11b5f525f60045260245ffd5b6006546001600160a01b03163303611eef57565b63118cdaa760e01b5f523360045260245ffd5b5f818152600260205260409020546001600160a01b0316908115611f24575090565b637e27328960e01b5f5260045260245ffd5b823b611f44575b5050505050565b604051630a85bd0160e11b81526001600160a01b039182166004820152918116602483015260448201939093526080606482015291169160209082908190611f90906084830190611ab0565b03815f865af15f9181612027575b50611ff357503d15611fec573d611fb481611b92565b90611fc26040519283611b71565b81523d5f602083013e5b80519081611fe75782633250574960e11b5f5260045260245ffd5b602001fd5b6060611fcc565b6001600160e01b03191663757a42ff60e11b0161201557505f80808080611f3d565b633250574960e11b5f5260045260245ffd5b9091506020813d602011612064575b8161204360209383611b71565b8101031261024c57516001600160e01b03198116810361024c57905f611f9e565b3d915061203656fea264697066735822122033f284db3310c87cbd00c65bae8d8c7fc285a2e594809cb0faefc6a25b3a74f364736f6c634300081c0033",
  "linkReferences": {},
  "deployedLinkReferences": {},
  "immutableReferences": {},
  "inputSourceName": "project/contracts/NationalIdNFT.sol",
  "buildInfoId": "solc-0_8_28-aa42b513112b3ac845e5998207f396f18f7c55b3"
}