{
  "_format": "hh3-artifact-1",
  "contractName": "NationalIdNFT",
  "sourceName": "contracts/NationalIdNFT.sol",
  "abi": [
    {
      "inputs": [],
      "stateMutability": "nonpayable",
      "type": "constructor"
    },
    {
      "inputs": [],
      "name": "DuplicateMetadata",
      "type": "error"
    },
    {
      "inputs": [
        {
          "internalType": "address",
          "name": "sender",
          "type": "address"
        },
        {
          "internalType": "uint256",
          "name": "tokenId",
          "type": "uint256"
        },
        {
          "internalType": "address",
          "name": "owner",
          "type": "address"
        }
      ],
      "name": "ERC721IncorrectOwner",
      "type": "error"
    },
    {
      "inputs": [
        {
          "internalType": "address",
          "name": "operator",
          "type": "address"
        },
        {
          "internalType": "uint256",
          "name": "tokenId",
          "type": "uint256"
        }
      ],
      "name": "ERC721InsufficientApproval",
      "type": "error"
    },
    {
      "inputs": [
        {
          "internalType": "address",
          "name": "approver",
          "type": "address"
        }
      ],
      "name": "ERC721InvalidApprover",
      "type": "error"
    },
    {
      "inputs": [
        {
          "internalType": "address",
          "name": "operator",
          "type": "address"
        }
      ],
      "name": "ERC721InvalidOperator",
      "type": "error"
    },
    {
      "inputs": [
        {
          "internalType": "address",
          "name": "owner",
          "type": "address"
        }
      ],
      "name": "ERC721InvalidOwner",
      "type": "error"
    },
    {
      "inputs": [
        {
          "internalType": "address",
          "name": "receiver",
          "type": "address"
        }
      ],
      "name": "ERC721InvalidReceiver",
      "type": "error"
    },
    {
      "inputs": [
        {
          "internalType": "address",
          "name": "sender",
          "type": "address"
        }
      ],
      "name": "ERC721InvalidSender",
      "type": "error"
    },
    {
      "inputs": [
        {
          "internalType": "uint256",
          "name": "tokenId",
          "type": "uint256"
        }
      ],
      "name": "ERC721NonexistentToken",
      "type": "error"
    },
    {
      "inputs": [],
      "name": "InvalidAddress",
      "type": "error"
    },
    {
      "inputs": [
        {
          "internalType": "address",
          "name": "owner",
          "type": "address"
        }
      ],
      "name": "OwnableInvalidOwner",
      "type": "error"
    },
    {
      "inputs": [
        {
          "internalType": "address",
          "name": "account",
          "type": "address"
        }
      ],
      "name": "OwnableUnauthorizedAccount",
      "type": "error"
    },
    {
      "inputs": [],
      "name": "TokenDoesNotExist",
      "type": "error"
    },
    {
      "inputs": [],
      "name": "TransferNotAllowed",
      "type": "error"
    },
    {
      "inputs": [],
      "name": "WalletAlreadyHasNationalId",
      "type": "error"
    },
    {
      "anonymous": false,
      "inputs": [
        {
          "indexed": true,
          "internalType": "address",
          "name": "owner",
          "type": "address"
        },
        {
          "indexed": true,
          "internalType": "address",
          "name": "approved",
          "type": "address"
        },
        {
          "indexed": true,
          "internalType": "uint256",
          "name": "tokenId",
          "type": "uint256"
        }
      ],
      "name": "Approval",
      "type": "event"
    },
    {
      "anonymous": false,
      "inputs": [
        {
          "indexed": true,
          "internalType": "address",
          "name": "owner",
          "type": "address"
        },
        {
          "indexed": true,
          "internalType": "address",
          "name": "operator",
          "type": "address"
        },
        {
          "indexed": false,
          "internalType": "bool",
          "name": "approved",
          "type": "bool"
        }
      ],
      "name": "ApprovalForAll",
      "type": "event"
    },
    {
      "anonymous": false,
      "inputs": [
        {
          "indexed": true,
          "internalType": "address",
          "name": "to",
          "type": "address"
        },
        {
          "indexed": true,
          "internalType": "uint256",
          "name": "tokenId",
          "type": "uint256"
        },
        {
          "indexed": false,
          "internalType": "string",
          "name": "metadataCid",
          "type": "string"
        }
      ],
      "name": "NationalIdMinted",
      "type": "event"
    },
    {
      "anonymous": false,
      "inputs": [
        {
          "indexed": true,
          "internalType": "address",
          "name": "previousOwner",
          "type": "address"
        },
        {
          "indexed": true,
          "internalType": "address",
          "name": "newOwner",
          "type": "address"
        }
      ],
      "name": "OwnershipTransferred",
      "type": "event"
    },
    {
      "anonymous": false,
      "inputs": [
        {
          "indexed": true,
          "internalType": "address",
          "name": "from",
          "type": "address"
        },
        {
          "indexed": true,
          "internalType": "address",
          "name": "to",
          "type": "address"
        },
        {
          "indexed": true,
          "internalType": "uint256",
          "name": "tokenId",
          "type": "uint256"
        }
      ],
      "name": "Transfer",
      "type": "event"
    },
    {
      "inputs": [
        {
          "internalType": "uint256",
          "name": "tokenId",
          "type": "uint256"
        },
        {
          "internalType": "string",
          "name": "cid",
          "type": "string"
        },
        {
          "internalType": "string",
          "name": "filename",
          "type": "string"
        },
        {
          "internalType": "string",
          "name": "mime",
          "type": "string"
        },
        {
          "internalType": "uint256",
          "name": "size",
          "type": "uint256"
        },
        {
          "internalType": "string",
          "name": "iv",
          "type": "string"
        },
        {
          "internalType": "string",
          "name": "ciphertextHash",
          "type": "string"
        },
        {
          "internalType": "string",
          "name": "tag",
          "type": "string"
        }
      ],
      "name": "addFileToToken",
      "outputs": [],
      "stateMutability": "nonpayable",
      "type": "function"
    },
    {
      "inputs": [
        {
          "internalType": "address",
          "name": "",
          "type": "address"
        },
        {
          "internalType": "uint256",
          "name": "",
          "type": "uint256"
        }
      ],
      "name": "approve",
      "outputs": [],
      "stateMutability": "nonpayable",
      "type": "function"
    },
    {
      "inputs": [
        {
          "internalType": "address",
          "name": "owner",
          "type": "address"
        }
      ],
      "name": "balanceOf",
      "outputs": [
        {
          "internalType": "uint256",
          "name": "",
          "type": "uint256"
        }
      ],
      "stateMutability": "view",
      "type": "function"
    },
    {
      "inputs": [
        {
          "internalType": "uint256",
          "name": "tokenId",
          "type": "uint256"
        }
      ],
      "name": "getApproved",
      "outputs": [
        {
          "internalType": "address",
          "name": "",
          "type": "address"
        }
      ],
      "stateMutability": "view",
      "type": "function"
    },
    {
      "inputs": [
        {
          "internalType": "uint256",
          "name": "tokenId",
          "type": "uint256"
        }
      ],
      "name": "getMetadata",
      "outputs": [
        {
          "components": [
            {
              "internalType": "string",
              "name": "requestType",
              "type": "string"
            },
            {
              "internalType": "string",
              "name": "minimalPublicLabel",
              "type": "string"
            },
            {
              "internalType": "string",
              "name": "metadataCid",
              "type": "string"
            },
            {
              "internalType": "string",
              "name": "metadataHash",
              "type": "string"
            },
            {
              "internalType": "string",
              "name": "uploaderSignature",
              "type": "string"
            },
            {
              "components": [
                {
                  "internalType": "string",
                  "name": "cid",
                  "type": "string"
                },
                {
                  "internalType": "string",
                  "name": "filename",
                  "type": "string"
                },
                {
                  "internalType": "string",
                  "name": "mime",
                  "type": "string"
                },
                {
                  "internalType": "uint256",
                  "name": "size",
                  "type": "uint256"
                },
                {
                  "internalType": "string",
                  "name": "iv",
                  "type": "string"
                },
                {
                  "internalType": "string",
                  "name": "ciphertextHash",
                  "type": "string"
                },
                {
                  "internalType": "string",
                  "name": "tag",
                  "type": "string"
                }
              ],
              "internalType": "struct NationalIdNFT.DocMeta[]",
              "name": "files",
              "type": "tuple[]"
            },
            {
              "internalType": "string",
              "name": "consentTextVersion",
              "type": "string"
            },
            {
              "internalType": "uint256",
              "name": "consentTimestamp",
              "type": "uint256"
            }
          ],
          "internalType": "struct NationalIdNFT.NationalIdMetadata",
          "name": "",
          "type": "tuple"
        }
      ],
      "stateMutability": "view",
      "type": "function"
    },
    {
      "inputs": [
        {
          "internalType": "address",
          "name": "wallet",
          "type": "address"
        }
      ],
      "name": "getTokenIdByWallet",
      "outputs": [
        {
          "internalType": "uint256",
          "name": "",
          "type": "uint256"
        }
      ],
      "stateMutability": "view",
      "type": "function"
    },
    {
      "inputs": [
        {
          "internalType": "address",
          "name": "wallet",
          "type": "address"
        }
      ],
      "name": "hasNationalId",
      "outputs": [
        {
          "internalType": "bool",
          "name": "",
          "type": "bool"
        }
      ],
      "stateMutability": "view",
      "type": "function"
    },
    {
      "inputs": [
        {
          "internalType": "address",
          "name": "owner",
          "type": "address"
        },
        {
          "internalType": "address",
          "name": "operator",
          "type": "address"
        }
      ],
      "name": "isApprovedForAll",
      "outputs": [
        {
          "internalType": "bool",
          "name": "",
          "type": "bool"
        }
      ],
      "stateMutability": "view",
      "type": "function"
    },
    {
      "inputs": [
        {
          "internalType": "string",
          "name": "metadataHash",
          "type": "string"
        }
      ],
      "name": "isMetadataUnique",
      "outputs": [
        {
          "internalType": "bool",
          "name": "",
          "type": "bool"
        }
      ],
      "stateMutability": "view",
      "type": "function"
    },
    {
      "inputs": [
        {
          "internalType": "address",
          "name": "to",
          "type": "address"
        },
        {
          "internalType": "string",
          "name": "requestType",
          "type": "string"
        },
        {
          "internalType": "string",
          "name": "minimalPublicLabel",
          "type": "string"
        },
        {
          "internalType": "string",
          "name": "metadataCid",
          "type": "string"
        },
        {
          "internalType": "string",
          "name": "metadataHash",
          "type": "string"
        },
        {
          "internalType": "string",
          "name": "uploaderSignature",
          "type": "string"
        },
        {
          "internalType": "string",
          "name": "consentTextVersion",
          "type": "string"
        },
        {
          "internalType": "uint256",
          "name": "consentTimestamp",
          "type": "uint256"
        }
      ],
      "name": "mintNationalId",
      "outputs": [
        {
          "internalType": "uint256",
          "name": "",
          "type": "uint256"
        }
      ],
      "stateMutability": "nonpayable",
      "type": "function"
    },
    {
      "inputs": [],
      "name": "name",
      "outputs": [
        {
          "internalType": "string",
          "name": "",
          "type": "string"
        }
      ],
      "stateMutability": "view",
      "type": "function"
    },
    {
      "inputs": [],
      "name": "owner",
      "outputs": [
        {
          "internalType": "address",
          "name": "",
          "type": "address"
        }
      ],
      "stateMutability": "view",
      "type": "function"
    },
    {
      "inputs": [
        {
          "internalType": "uint256",
          "name": "tokenId",
          "type": "uint256"
        }
      ],
      "name": "ownerOf",
      "outputs": [
        {
          "internalType": "address",
          "name": "",
          "type": "address"
        }
      ],
      "stateMutability": "view",
      "type": "function"
    },
    {
      "inputs": [],
      "name": "renounceOwnership",
      "outputs": [],
      "stateMutability": "nonpayable",
      "type": "function"
    },
    {
      "inputs": [
        {
          "internalType": "address",
          "name": "from",
          "type": "address"
        },
        {
          "internalType": "address",
          "name": "to",
          "type": "address"
        },
        {
          "internalType": "uint256",
          "name": "tokenId",
          "type": "uint256"
        }
      ],
      "name": "safeTransferFrom",
      "outputs": [],
      "stateMutability": "nonpayable",
      "type": "function"
    },
    {
      "inputs": [
        {
          "internalType": "address",
          "name": "from",
          "type": "address"
        },
        {
          "internalType": "address",
          "name": "to",
          "type": "address"
        },
        {
          "internalType": "uint256",
          "name": "tokenId",
          "type": "uint256"
        },
        {
          "internalType": "bytes",
          "name": "data",
          "type": "bytes"
        }
      ],
      "name": "safeTransferFrom",
      "outputs": [],
      "stateMutability": "nonpayable",
      "type": "function"
    },
    {
      "inputs": [
        {
          "internalType": "address",
          "name": "",
          "type": "address"
        },
        {
          "internalType": "bool",
          "name": "",
          "type": "bool"
        }
      ],
      "name": "setApprovalForAll",
      "outputs": [],
      "stateMutability": "nonpayable",
      "type": "function"
    },
    {
      "inputs": [
        {
          "internalType": "bytes4",
          "name": "interfaceId",
          "type": "bytes4"
        }
      ],
      "name": "supportsInterface",
      "outputs": [
        {
          "internalType": "bool",
          "name": "",
          "type": "bool"
        }
      ],
      "stateMutability": "view",
      "type": "function"
    },
    {
      "inputs": [],
      "name": "symbol",
      "outputs": [
        {
          "internalType": "string",
          "name": "",
          "type": "string"
        }
      ],
      "stateMutability": "view",
      "type": "function"
    },
    {
      "inputs": [
        {
          "internalType": "uint256",
          "name": "tokenId",
          "type": "uint256"
        }
      ],
      "name": "tokenURI",
      "outputs": [
        {
          "internalType": "string",
          "name": "",
          "type": "string"
        }
      ],
      "stateMutability": "view",
      "type": "function"
    },
    {
      "inputs": [],
      "name": "totalSupply",
      "outputs": [
        {
          "internalType": "uint256",
          "name": "",
          "type": "uint256"
        }
      ],
      "stateMutability": "view",
      "type": "function"
    },
    {
      "inputs": [
        {
          "internalType": "address",
          "name": "from",
          "type": "address"
        },
        {
          "internalType": "address",
          "name": "to",
          "type": "address"
        },
        {
          "internalType": "uint256",
          "name": "tokenId",
          "type": "uint256"
        }
      ],
      "name": "transferFrom",
      "outputs": [],
      "stateMutability": "nonpayable",
      "type": "function"
    },
    {
      "inputs": [
        {
          "internalType": "address",
          "name": "newOwner",
          "type": "address"
        }
      ],
      "name": "transferOwnership",
      "outputs": [],
      "stateMutability": "nonpayable",
      "type": "function"
    }
  ],
  "bytecode": "0x60806040523461037957604080519081016001600160401b0381118282101761028f57604090815260118252702730ba34b7b730b61024a210283937b7b360791b602083015280519081016001600160401b0381118282101761028f576040526005815264139055125160da1b602082015281516001600160401b03811161028f575f54600181811c9116801561036f575b602082101461027157601f811161030d575b50602092601f82116001146102ae57928192935f926102a3575b50508160011b915f199060031b1c1916175f555b80516001600160401b03811161028f57600154600181811c91168015610285575b602082101461027157601f811161020e575b50602091601f82116001146101ae579181925f926101a3575b50508160011b915f199060031b1c1916176001555b33156101905760068054336001600160a01b03198216811790925560405191906001600160a01b03167f8be0079c531659141344cd1fd0a4f28419497f9722a3daafe3b4186f6b6457e05f80a3600160075561214f908161037e8239f35b631e4fbdf760e01b5f525f60045260245ffd5b015190505f8061011d565b601f1982169260015f52805f20915f5b8581106101f6575083600195106101de575b505050811b01600155610132565b01515f1960f88460031b161c191690555f80806101d0565b919260206001819286850151815501940192016101be565b60015f527fb10e2d527612073b26eecdfd717e6a320cf44b4afac2b0732d9fcbe2b7fa0cf6601f830160051c81019160208410610267575b601f0160051c01905b81811061025c5750610104565b5f815560010161024f565b9091508190610246565b634e487b7160e01b5f52602260045260245ffd5b90607f16906100f2565b634e487b7160e01b5f52604160045260245ffd5b015190505f806100bd565b601f198216935f8052805f20915f5b8681106102f557508360019596106102dd575b505050811b015f556100d1565b01515f1960f88460031b161c191690555f80806102d0565b919260206001819286850151815501940192016102bd565b5f80527f290decd9548b62a8d60345a988386fc84ba6bc95484008f6362f93160ef3e563601f830160051c81019160208410610365575b601f0160051c01905b81811061035a57506100a3565b5f815560010161034d565b9091508190610344565b90607f1690610091565b5f80fdfe6080806040526004361015610012575f80fd5b5f905f3560e01c90816301ffc9a714611ac55750806304a4b0bb1461146657806306fdde03146113c4578063081812fc14611388578063095ea7b31461135f57806318160ddd146113365780631d2cbedc146112fe57806323b872dd146112e75780632b0579d2146112ad57806342842e0e1461127e5780636352211e1461124e5780636fe9be20146111f957806370a08231146111a8578063715018a61461114d578063888e1ac9146107755780638da5cb5b1461074d57806395d89b411461066f578063a22cb4651461063b578063a574cea4146102c8578063b88d4fde1461025b578063c87b56dd146101fe578063e985e9c5146101a65763f2fde38b1461011b575f80fd5b346101a35760203660031901126101a357610134611b81565b61013c611f88565b6001600160a01b0316801561018f57600680546001600160a01b0319811683179091556001600160a01b03167f8be0079c531659141344cd1fd0a4f28419497f9722a3daafe3b4186f6b6457e05f80a380f35b631e4fbdf760e01b82526004829052602482fd5b80fd5b50346101a35760403660031901126101a35760406101c2611b81565b916101cb611b97565b9260018060a01b031681526005602052209060018060a01b03165f52602052602060ff60405f2054166040519015158152f35b346102575760203660031901126102575761021a600435611faf565b505f60405161022a602082611c1e565b5261025360405161023c602082611c1e565b5f8152604051918291602083526020830190611b5d565b0390f35b5f80fd5b3461025757608036600319011261025757610274611b81565b61027c611b97565b90604435606435926001600160401b0384116102575736602385011215610257576102b46102c6943690602481600401359101611c5a565b926102c0838383611db7565b33611fe3565b005b34610257576020366003190112610257576004355f60e06040516102eb81611c02565b60608152606060208201526060604082015260608082015260606080820152606060a0820152606060c08201520152805f52600a60205260018060a01b0360405f2054161561062c575f52600860205260405f2060405161034b81611c02565b61035482611d17565b815261036260018301611d17565b906020810191825261037660028401611d17565b926040820193845261038a60038201611d17565b6060830190815261039d60048301611d17565b906080840191825260058301958654956001600160401b03871161061857604051966103cf60208260051b0189611c1e565b80885260208801985f5260205f20985f905b82821061058e5760a089018a815260208a8a61048d8b61047a8c6104678d6104548e610441600761041460068c01611d17565b9a60c08d019b8c5201549a60e081019b8c526101006040519d8e92818452519201526101208d0190611b5d565b90518b8203601f190160408d0152611b5d565b9051898203601f190160608b0152611b5d565b9051878203601f19016080890152611b5d565b9051858203601f190160a0870152611b5d565b935193601f198482030160c0850152845180825260208201916020808360051b8301019701925f915b8383106104e3578780886104d78c8a51601f198583030160e0860152611b5d565b90516101008301520390f35b909192939760208061057f600193601f198682030187528c519060c061056e61055c61054061052e61051e875160e0885260e0880190611b5d565b898801518782038b890152611b5d565b60408701518682036040880152611b5d565b6060860151606086015260808601518582036080870152611b5d565b60a085015184820360a0860152611b5d565b9201519060c0818403910152611b5d565b9a0193019301919392906104b6565b600760206001928d6106056006604051926105a884611be7565b6105b181611d17565b84526105be888201611d17565b868501526105ce60028201611d17565b6040850152600381015460608501526105e960048201611d17565b60808501526105fa60058201611d17565b60a085015201611d17565b60c08201528152019b01910190996103e1565b634e487b7160e01b5f52604160045260245ffd5b63677510db60e11b5f5260045ffd5b3461025757604036600319011261025757610654611b81565b506024358015150361025757638cd22d1960e01b5f5260045ffd5b34610257575f366003190112610257576040515f60015461068f81611c90565b808452906001811690811561072957506001146106cb575b610253836106b781850382611c1e565b604051918291602083526020830190611b5d565b60015f9081527fb10e2d527612073b26eecdfd717e6a320cf44b4afac2b0732d9fcbe2b7fa0cf6939250905b80821061070f575090915081016020016106b76106a7565b9192600181602092548385880101520191019092916106f7565b60ff191660208086019190915291151560051b840190910191506106b790506106a7565b34610257575f366003190112610257576006546040516001600160a01b039091168152602090f35b34610257576101003660031901126102575761078f611b81565b6024356001600160401b038111610257576107ae903690600401611b30565b6044929192356001600160401b038111610257576107d0903690600401611b30565b926064356001600160401b038111610257576107f0903690600401611b30565b9290946084356001600160401b03811161025757610812903690600401611b30565b9260a4356001600160401b03811161025757610832903690600401611b30565b60c4356001600160401b03811161025757610851903690600401611b30565b93909561085c611f88565b6001600160a01b0389161561113e576001600160a01b0389165f9081526009602052604090205461112f5760ff604051898882376020818b8101600b8152030190205416611120576007549c5f198e1461110c578d9b60018d0160075560209e8f604051916108cb8284611c1e565b5f808452908152600290915260409020546001600160a01b03161515806110fa575b6110eb578f8c8f805f526002835260018060a01b0360405f20541691600283151594856110bb575b6001600160a01b038316611099575b5f8481529190526040812080546001600160a01b0319166001600160a01b0393909316928317905583907fddf252ad1be2c89b69c2b068fc378daa952ba7f163c4a11628f55a4df523b3ef9080a450611086578b3b610f44575b5060088f8e5f525260405f20916001600160401b038211610618578f906109af836109a98654611c90565b86611cc8565b5f91601f8411600114610edf57506109de92915f9183610c84575b50508160011b915f199060031b1c19161790565b90555b8a5f5260088d52600160405f2001916001600160401b038211610618578d90610a0e836109a98654611c90565b5f91601f8411600114610e7a5750610a3c92915f9183610e6f5750508160011b915f199060031b1c19161790565b90555b885f5260088b52600260405f20016001600160401b03891161061857610a6f89610a698354611c90565b83611cc8565b885f8d601f8311600114610e0657509080610a9e925f91610dfb575b508160011b915f199060031b1c19161790565b90555b885f5260088b52600360405f20016001600160401b03871161061857610acb87610a698354611c90565b865f8d601f8311600114610d9757509080610af9925f91610d8c57508160011b915f199060031b1c19161790565b90555b885f5260088b52600460405f2001916001600160401b03821161061857610b2d82610b278554611c90565b85611cc8565b5f908c601f8411600114610d275750610b5c92915f9183610d1c5750508160011b915f199060031b1c19161790565b90555b865f5260088952600660405f2001906001600160401b038111610618578993610b8c82610b278554611c90565b5f90601f8311600114610c8f57937f544b13e8345f58407295c2c47e21ed56e6c0f52509138fa4e3cc067bd17aaa699793610be5848b9995604099958e9f995f92610c845750508160011b915f199060031b1c19161790565b90555b5f8a81526008835286812060e4356007909101556001600160a01b038516808252600984528782208c90558b8252600a84529087902080546001600160a01b03191690911790558551928391819083378101600b815203019020600160ff1982541617905582519384928a8452818b850152848401375f8287018401526001600160a01b031694601f01601f19168101030190a3604051908152f35b013590505f806109ca565b601f19831691845f52865f20925f5b818110610d05575084604098948d9e98947f544b13e8345f58407295c2c47e21ed56e6c0f52509138fa4e3cc067bd17aaa699c98948e9c9860019510610cec575b505050811b019055610be8565b01355f19600384901b60f8161c191690558f8080610cdf565b919388600181928787013581550195019201610c9e565b013590508d806109ca565b91601f198416855f52835f20935f905b828210610d74575050908460019594939210610d5b575b505050811b019055610b5f565b01355f19600384901b60f8161c191690558c8080610d4e565b80600185978294968801358155019601930190610d37565b90508701358f610a8b565b91601f198116845f52835f20935f905b828210610dde57505010610dc5575b5050600187811b019055610afc565b8601355f1960038a901b60f8161c191690558c80610db6565b80929350600185968293968d0135815501950193018b9291610da7565b90508d01358f610a8b565b918d601f19821690855f52845f20945f915b838310610e505750505010610e37575b5050600189811b019055610aa1565b8c01355f1960038c901b60f8161c191690558c80610e28565b8193945085968293966001920135815501950193018f918e9392610e18565b013590508f806109ca565b91601f198416855f52835f20935f905b828210610ec7575050908460019594939210610eae575b505050811b019055610a3f565b01355f19600384901b60f8161c191690558e8080610ea1565b80600185978294968801358155019601930190610e8a565b91601f198416855f52835f20935f905b828210610f2c575050908460019594939210610f13575b505050811b0190556109e1565b01355f19600384901b60f8161c191690555f8080610f06565b80600185978294968801358155019601930190610eef565b8b9f9e9d9c9b8f610f89928f9282935f604051809781958294630a85bd0160e11b84523360048501528460248501526044840152608060648401526084830190611b5d565b03926001600160a01b03165af19182915f93611045575b5050611001578f8f3d15610ff9573d90610fb982611c3f565b91610fc76040519384611c1e565b82523d5f8284013e5b81519182610ff657633250574960e11b5f9081526001600160a01b038516600452602490fd5b01fd5b606090610fd0565b9d9e9c9d9b9c9a9b6001600160e01b03191663757a42ff60e11b0161102757600861097e565b633250574960e11b5f9081526001600160a01b038c16600452602490fd5b9080929350813d831161107f575b61105d8183611c1e565b8101031261025757516001600160e01b03198116810361025757908f80610fa0565b503d611053565b6339e3563760e11b5f525f60045260245ffd5b6001600160a01b0383165f908152600382526040902080546001019055610924565b5f84815260048252604080822080546001600160a01b031916905586825260038352902080545f19019055610915565b638cd22d1960e01b5f5260045ffd5b506001600160a01b038c1615156108ed565b634e487b7160e01b5f52601160045260245ffd5b636548e7d760e01b5f5260045ffd5b63d05e28e560e01b5f5260045ffd5b63e6c4247b60e01b5f5260045ffd5b34610257575f36600319011261025757611165611f88565b600680546001600160a01b031981169091555f906001600160a01b03167f8be0079c531659141344cd1fd0a4f28419497f9722a3daafe3b4186f6b6457e08280a3005b34610257576020366003190112610257576001600160a01b036111c9611b81565b1680156111e6575f526003602052602060405f2054604051908152f35b6322718ad960e21b5f525f60045260245ffd5b34610257576020366003190112610257576004356001600160401b0381116102575760ff602061122e81933690600401611b30565b91908260405193849283378101600b815203019020541615604051908152f35b3461025757602036600319011261025757602061126c600435611faf565b6040516001600160a01b039091168152f35b34610257576102c661128f36611bad565b906040519261129f602085611c1e565b5f84526102c0838383611db7565b34610257576020366003190112610257576001600160a01b036112ce611b81565b165f526009602052602060405f20541515604051908152f35b34610257576102c66112f836611bad565b91611db7565b34610257576020366003190112610257576001600160a01b0361131f611b81565b165f526009602052602060405f2054604051908152f35b34610257575f366003190112610257576007545f19810190811161110c57602090604051908152f35b3461025757604036600319011261025757611378611b81565b50638cd22d1960e01b5f5260045ffd5b34610257576020366003190112610257576004356113a581611faf565b505f526004602052602060018060a01b0360405f205416604051908152f35b34610257575f366003190112610257576040515f5f546113e381611c90565b8084529060018116908115610729575060011461140a57610253836106b781850382611c1e565b5f8080527f290decd9548b62a8d60345a988386fc84ba6bc95484008f6362f93160ef3e563939250905b80821061144c575090915081016020016106b76106a7565b919260018160209254838588010152019101909291611434565b3461025757610100366003190112610257576004356024356001600160401b0381116102575761149a903690600401611b30565b6044929192356001600160401b038111610257576114bc903690600401611b30565b936064356001600160401b038111610257576114dc903690600401611b30565b60a4939193356001600160401b038111610257576114fe903690600401611b30565b93909260c4356001600160401b03811161025757611520903690600401611b30565b96909160e4356001600160401b03811161025757611542903690600401611b30565b9b909461154d611f88565b5f8c8152600a60205260409020546001600160a01b03161561062c576040519a6115768c611be7565b369061158192611c5a565b8a52369061158e92611c5a565b936020890194855236906115a192611c5a565b93604088019485526060880195608435875236906115be92611c5a565b956080880196875236906115d192611c5a565b9760a0870198895236906115e492611c5a565b9560c086019687525f52600860205260405f20600501805490680100000000000000008210156106185760018201808255821015611ab1575f52600760205f2091020194518051906001600160401b0382116106185761164e826116488954611c90565b89611cc8565b602090601f8311600114611a4e5761167c92915f91836119e05750508160011b915f199060031b1c19161790565b85555b51805160018601916001600160401b038211610618576116a382610b278554611c90565b602090601f83116001146119eb576116d192915f91836119e05750508160011b915f199060031b1c19161790565b90555b51805160028501916001600160401b038211610618576116f882610b278554611c90565b602090601f831160011461197d5761172692915f91836119725750508160011b915f199060031b1c19161790565b90555b51600383015551805160048301916001600160401b0382116106185761175382610b278554611c90565b602090601f831160011461190f5761178192915f918361189f5750508160011b915f199060031b1c19161790565b90555b6005810192519283516001600160401b038111610618576117af816117a98454611c90565b84611cc8565b6020601f82116001146118aa5790806117e092600696975f9261189f5750508160011b915f199060031b1c19161790565b90555b0190519081516001600160401b03811161061857611805816117a98454611c90565b602092601f821160011461184357611834929382915f926118385750508160011b915f199060031b1c19161790565b9055005b0151905084806109ca565b601f19821693835f52805f20915f5b868110611887575083600195961061186f575b505050811b019055005b01515f1960f88460031b161c19169055838080611865565b91926020600181928685015181550194019201611852565b0151905087806109ca565b601f19821695835f52815f20965f5b8181106118f757509160069697918460019594106118df575b505050811b0190556117e3565b01515f1960f88460031b161c191690558680806118d2565b838301518955600190980197602093840193016118b9565b90601f19831691845f52815f20925f5b81811061195a5750908460019594939210611942575b505050811b019055611784565b01515f1960f88460031b161c19169055868080611935565b9293602060018192878601518155019501930161191f565b0151905089806109ca565b90601f19831691845f52815f20925f5b8181106119c857509084600195949392106119b0575b505050811b019055611729565b01515f1960f88460031b161c191690558880806119a3565b9293602060018192878601518155019501930161198d565b015190508a806109ca565b90601f19831691845f52815f20925f5b818110611a365750908460019594939210611a1e575b505050811b0190556116d4565b01515f1960f88460031b161c19169055898080611a11565b929360206001819287860151815501950193016119fb565b90601f19831691885f52815f20925f5b818110611a995750908460019594939210611a81575b505050811b01855561167f565b01515f1960f88460031b161c19169055898080611a74565b92936020600181928786015181550195019301611a5e565b634e487b7160e01b5f52603260045260245ffd5b34610257576020366003190112610257576004359063ffffffff60e01b8216809203610257576020916380ac58cd60e01b8114908115611b1f575b8115611b0e575b5015158152f35b6301ffc9a760e01b14905083611b07565b635b5e139f60e01b81149150611b00565b9181601f84011215610257578235916001600160401b038311610257576020838186019501011161025757565b805180835260209291819084018484015e5f828201840152601f01601f1916010190565b600435906001600160a01b038216820361025757565b602435906001600160a01b038216820361025757565b6060906003190112610257576004356001600160a01b038116810361025757906024356001600160a01b0381168103610257579060443590565b60e081019081106001600160401b0382111761061857604052565b61010081019081106001600160401b0382111761061857604052565b90601f801991011681019081106001600160401b0382111761061857604052565b6001600160401b03811161061857601f01601f191660200190565b929192611c6682611c3f565b91611c746040519384611c1e565b829481845281830111610257578281602093845f960137010152565b90600182811c92168015611cbe575b6020831014611caa57565b634e487b7160e01b5f52602260045260245ffd5b91607f1691611c9f565b601f8211611cd557505050565b5f5260205f20906020601f840160051c83019310611d0d575b601f0160051c01905b818110611d02575050565b5f8155600101611cf7565b9091508190611cee565b9060405191825f825492611d2a84611c90565b8084529360018116908115611d955750600114611d51575b50611d4f92500383611c1e565b565b90505f9291925260205f20905f915b818310611d79575050906020611d4f928201015f611d42565b6020919350806001915483858901015201910190918492611d60565b905060209250611d4f94915060ff191682840152151560051b8201015f611d42565b6001600160a01b0390911691908215611f75575f828152600260205260409020546001600160a01b0316151580611f6d575b6110eb575f828152600260205260409020546001600160a01b031692829033151580611ed8575b5084611e9f575b805f52600360205260405f2060018154019055815f52600260205260405f20816bffffffffffffffffffffffff60a01b825416179055847fddf252ad1be2c89b69c2b068fc378daa952ba7f163c4a11628f55a4df523b3ef5f80a46001600160a01b0316808303611e8757505050565b6364283d7b60e01b5f5260045260245260445260645ffd5b815f52600460205260405f206bffffffffffffffffffffffff60a01b8154169055845f52600360205260405f205f198154019055611e17565b90915080611f1c575b15611eee5782905f611e10565b8284611f0657637e27328960e01b5f5260045260245ffd5b63177e802f60e01b5f523360045260245260445ffd5b503384148015611f4b575b80611ee157505f838152600460205260409020546001600160a01b03163314611ee1565b505f84815260056020908152604080832033845290915290205460ff16611f27565b506001611de9565b633250574960e11b5f525f60045260245ffd5b6006546001600160a01b03163303611f9c57565b63118cdaa760e01b5f523360045260245ffd5b5f818152600260205260409020546001600160a01b0316908115611fd1575090565b637e27328960e01b5f5260045260245ffd5b823b611ff1575b5050505050565b604051630a85bd0160e11b81526001600160a01b03918216600482015291811660248301526044820193909352608060648201529116916020908290819061203d906084830190611b5d565b03815f865af15f91816120d4575b506120a057503d15612099573d61206181611c3f565b9061206f6040519283611c1e565b81523d5f602083013e5b805190816120945782633250574960e11b5f5260045260245ffd5b602001fd5b6060612079565b6001600160e01b03191663757a42ff60e11b016120c257505f80808080611fea565b633250574960e11b5f5260045260245ffd5b9091506020813d602011612111575b816120f060209383611c1e565b8101031261025757516001600160e01b03198116810361025757905f61204b565b3d91506120e356fea2646970667358221220468cbf53507775eada1e5e4fdbce9bb2fcafcb62b45964eff4356df1139ea93264736f6c634300081c0033",
  "linkReferences": {},
  "deployedLinkReferences": {},
  "immutableReferences": {},
  "inputSourceName": "project/contracts/NationalIdNFT.sol",
  "buildInfoId": "solc-0_8_28-3bad1eaa12e2cb8a9eb14985d7e64a0f31db0f88"
}